{
  "contractName": "StreamManager",
  "abi": [
    {
      "constant": true,
      "inputs": [],
      "name": "version",
      "outputs": [
        {
          "name": "",
          "type": "string"
        }
      ],
      "payable": false,
      "stateMutability": "view",
      "type": "function"
    },
    {
      "constant": false,
      "inputs": [],
      "name": "renounceOwnership",
      "outputs": [],
      "payable": false,
      "stateMutability": "nonpayable",
      "type": "function"
    },
    {
      "constant": true,
      "inputs": [
        {
          "name": "",
          "type": "uint256"
        }
      ],
      "name": "requests",
      "outputs": [
        {
          "name": "approved",
          "type": "bool"
        },
        {
          "name": "refund",
          "type": "bool"
        },
        {
          "name": "ended",
          "type": "bool"
        },
        {
          "name": "client",
          "type": "address"
        },
        {
          "name": "stream",
          "type": "address"
        },
        {
          "name": "streamId",
          "type": "uint256"
        }
      ],
      "payable": false,
      "stateMutability": "view",
      "type": "function"
    },
    {
      "constant": true,
      "inputs": [],
      "name": "owner",
      "outputs": [
        {
          "name": "",
          "type": "address"
        }
      ],
      "payable": false,
      "stateMutability": "view",
      "type": "function"
    },
    {
      "constant": true,
      "inputs": [],
      "name": "isOwner",
      "outputs": [
        {
          "name": "",
          "type": "bool"
        }
      ],
      "payable": false,
      "stateMutability": "view",
      "type": "function"
    },
    {
      "constant": true,
      "inputs": [
        {
          "name": "",
          "type": "uint256"
        }
      ],
      "name": "profiles",
      "outputs": [
        {
          "name": "",
          "type": "string"
        }
      ],
      "payable": false,
      "stateMutability": "view",
      "type": "function"
    },
    {
      "constant": false,
      "inputs": [
        {
          "name": "newOwner",
          "type": "address"
        }
      ],
      "name": "transferOwnership",
      "outputs": [],
      "payable": false,
      "stateMutability": "nonpayable",
      "type": "function"
    },
    {
      "inputs": [],
      "payable": false,
      "stateMutability": "nonpayable",
      "type": "constructor"
    },
    {
      "anonymous": false,
      "inputs": [
        {
          "indexed": true,
          "name": "client",
          "type": "address"
        },
        {
          "indexed": true,
          "name": "streamId",
          "type": "uint256"
        }
      ],
      "name": "StreamRequested",
      "type": "event"
    },
    {
      "anonymous": false,
      "inputs": [
        {
          "indexed": true,
          "name": "streamId",
          "type": "uint256"
        }
      ],
      "name": "StreamApproved",
      "type": "event"
    },
    {
      "anonymous": false,
      "inputs": [
        {
          "indexed": true,
          "name": "streamAddress",
          "type": "address"
        },
        {
          "indexed": true,
          "name": "streamId",
          "type": "uint256"
        }
      ],
      "name": "StreamCreated",
      "type": "event"
    },
    {
      "anonymous": false,
      "inputs": [
        {
          "indexed": true,
          "name": "validator",
          "type": "address"
        }
      ],
      "name": "ValidatorAdded",
      "type": "event"
    },
    {
      "anonymous": false,
      "inputs": [
        {
          "indexed": true,
          "name": "validator",
          "type": "address"
        }
      ],
      "name": "ValidatorRemoved",
      "type": "event"
    },
    {
      "anonymous": false,
      "inputs": [
        {
          "indexed": true,
          "name": "streamId",
          "type": "uint256"
        }
      ],
      "name": "RefundAllowed",
      "type": "event"
    },
    {
      "anonymous": false,
      "inputs": [
        {
          "indexed": true,
          "name": "streamId",
          "type": "uint256"
        }
      ],
      "name": "RefundRevoked",
      "type": "event"
    },
    {
      "anonymous": false,
      "inputs": [
        {
          "indexed": true,
          "name": "streamId",
          "type": "uint256"
        },
        {
          "indexed": true,
          "name": "chunkId",
          "type": "uint256"
        }
      ],
      "name": "InputChunkAdded",
      "type": "event"
    },
    {
      "anonymous": false,
      "inputs": [
        {
          "indexed": true,
          "name": "streamId",
          "type": "uint256"
        },
        {
          "indexed": true,
          "name": "caller",
          "type": "address"
        }
      ],
      "name": "StreamEnded",
      "type": "event"
    },
    {
      "anonymous": false,
      "inputs": [
        {
          "indexed": true,
          "name": "previousOwner",
          "type": "address"
        },
        {
          "indexed": true,
          "name": "newOwner",
          "type": "address"
        }
      ],
      "name": "OwnershipTransferred",
      "type": "event"
    },
    {
      "constant": false,
      "inputs": [
        {
          "name": "v",
          "type": "address"
        }
      ],
      "name": "addValidator",
      "outputs": [],
      "payable": false,
      "stateMutability": "nonpayable",
      "type": "function"
    },
    {
      "constant": false,
      "inputs": [
        {
          "name": "v",
          "type": "address"
        }
      ],
      "name": "removeValidator",
      "outputs": [],
      "payable": false,
      "stateMutability": "nonpayable",
      "type": "function"
    },
    {
      "constant": true,
      "inputs": [
        {
          "name": "v",
          "type": "address"
        }
      ],
      "name": "isValidator",
      "outputs": [
        {
          "name": "",
          "type": "bool"
        }
      ],
      "payable": false,
      "stateMutability": "view",
      "type": "function"
    },
    {
      "constant": true,
      "inputs": [],
      "name": "getVersion",
      "outputs": [
        {
          "name": "",
          "type": "string"
        }
      ],
      "payable": false,
      "stateMutability": "view",
      "type": "function"
    },
    {
      "constant": false,
      "inputs": [
        {
          "name": "streamId",
          "type": "uint256"
        },
        {
          "name": "profileNames",
          "type": "string[]"
        }
      ],
      "name": "requestStream",
      "outputs": [
        {
          "name": "",
          "type": "uint256"
        }
      ],
      "payable": false,
      "stateMutability": "nonpayable",
      "type": "function"
    },
    {
      "constant": false,
      "inputs": [
        {
          "name": "streamId",
          "type": "uint256"
        }
      ],
      "name": "approveStreamCreation",
      "outputs": [],
      "payable": false,
      "stateMutability": "nonpayable",
      "type": "function"
    },
    {
      "constant": false,
      "inputs": [
        {
          "name": "streamId",
          "type": "uint256"
        }
      ],
      "name": "createStream",
      "outputs": [
        {
          "name": "",
          "type": "address"
        }
      ],
      "payable": true,
      "stateMutability": "payable",
      "type": "function"
    },
    {
      "constant": false,
      "inputs": [
        {
          "name": "streamId",
          "type": "uint256"
        },
        {
          "name": "chunkId",
          "type": "uint256"
        },
        {
          "name": "wattages",
          "type": "uint256[]"
        }
      ],
      "name": "addInputChunkId",
      "outputs": [],
      "payable": false,
      "stateMutability": "nonpayable",
      "type": "function"
    },
    {
      "constant": false,
      "inputs": [
        {
          "name": "streamId",
          "type": "uint256"
        }
      ],
      "name": "endStream",
      "outputs": [],
      "payable": false,
      "stateMutability": "nonpayable",
      "type": "function"
    },
    {
      "constant": true,
      "inputs": [
        {
          "name": "streamId",
          "type": "uint256"
        }
      ],
      "name": "refundAllowed",
      "outputs": [
        {
          "name": "",
          "type": "bool"
        }
      ],
      "payable": false,
      "stateMutability": "view",
      "type": "function"
    },
    {
      "constant": false,
      "inputs": [
        {
          "name": "streamId",
          "type": "uint256"
        }
      ],
      "name": "allowRefund",
      "outputs": [],
      "payable": false,
      "stateMutability": "nonpayable",
      "type": "function"
    },
    {
      "constant": false,
      "inputs": [
        {
          "name": "streamId",
          "type": "uint256"
        }
      ],
      "name": "revokeRefund",
      "outputs": [],
      "payable": false,
      "stateMutability": "nonpayable",
      "type": "function"
    }
  ],
  "bytecode": "0x60806040523480156200001157600080fd5b50336000806101000a81548173ffffffffffffffffffffffffffffffffffffffff021916908373ffffffffffffffffffffffffffffffffffffffff1602179055506000809054906101000a900473ffffffffffffffffffffffffffffffffffffffff1673ffffffffffffffffffffffffffffffffffffffff16600073ffffffffffffffffffffffffffffffffffffffff167f8be0079c531659141344cd1fd0a4f28419497f9722a3daafe3b4186f6b6457e060405160405180910390a36040518060400160405280600581526020017f302e302e33000000000000000000000000000000000000000000000000000000815250600190805190602001906200011b92919062000122565b50620001d1565b828054600181600116156101000203166002900490600052602060002090601f016020900481019282601f106200016557805160ff191683800117855562000196565b8280016001018555821562000196579182015b828111156200019557825182559160200191906001019062000178565b5b509050620001a59190620001a9565b5090565b620001ce91905b80821115620001ca576000816000905550600101620001b0565b5090565b90565b61465880620001e16000396000f3fe6080604052600436106200012e5760003560e01c8063551479dd11620000af578063b56b9f16116200006d578063b56b9f1614620003fa578063c36fe3d61462000428578063ecf9ac74146200046c578063f2fde38b146200049a578063facd743b14620004c8576200012e565b8063551479dd1462000301578063715018a6146200033757806381d12c5814620003515780638da5cb5b146200039a5780638f32d59b14620003ca576200012e565b806340a141ff11620000fd57806340a141ff14620002195780634b51438c14620002475780634d238c8e146200027557806350d55afc14620002a357806354fd4d5014620002d1576200012e565b80630d8e6e2c14620001335780630f5147171462000163578063225f654114620001a75780632c29980c14620001d5575b600080fd5b3480156200014057600080fd5b506200014b6200050c565b6040516200015a919062001fc7565b60405180910390f35b3480156200017057600080fd5b506200018f600480360362000189919081019062001be9565b620005b2565b6040516200019e919062001f19565b60405180910390f35b348015620001b457600080fd5b50620001d36004803603620001cd919081019062001be9565b620005df565b005b348015620001e257600080fd5b50620002016004803603620001fb919081019062001c15565b620006f9565b60405162000210919062001feb565b60405180910390f35b3480156200022657600080fd5b506200024560048036036200023f919081019062001bbd565b62000a5f565b005b3480156200025457600080fd5b506200027360048036036200026d919081019062001be9565b62000acf565b005b3480156200028257600080fd5b50620002a160048036036200029b919081019062001bbd565b62000be9565b005b348015620002b057600080fd5b50620002cf6004803603620002c9919081019062001be9565b62000c59565b005b348015620002de57600080fd5b50620002e962000ded565b604051620002f8919062001fa3565b60405180910390f35b6200031f600480360362000319919081019062001be9565b62000e8f565b6040516200032e919062001efc565b60405180910390f35b3480156200034457600080fd5b506200034f620010fe565b005b3480156200035e57600080fd5b506200037d600480360362000377919081019062001be9565b620011d1565b604051620003919695949392919062001f36565b60405180910390f35b348015620003a757600080fd5b50620003b262001274565b604051620003c1919062001efc565b60405180910390f35b348015620003d757600080fd5b50620003e26200129d565b604051620003f1919062001f19565b60405180910390f35b3480156200040757600080fd5b5062000426600480360362000420919081019062001c6f565b620012f4565b005b3480156200043557600080fd5b506200045460048036036200044e919081019062001be9565b62001462565b60405162000463919062001fa3565b60405180910390f35b3480156200047957600080fd5b5062000498600480360362000492919081019062001be9565b62001516565b005b348015620004a757600080fd5b50620004c66004803603620004c0919081019062001bbd565b620015ee565b005b348015620004d557600080fd5b50620004f46004803603620004ee919081019062001bbd565b62001610565b60405162000503919062001f19565b60405180910390f35b606060018054600181600116156101000203166002900480601f016020809104026020016040519081016040528092919081815260200182805460018160011615610100020316600290048015620005a85780601f106200057c57610100808354040283529160200191620005a8565b820191906000526020600020905b8154815290600101906020018083116200058a57829003601f168201915b5050505050905090565b60006003600083815260200190815260200160002060000160019054906101000a900460ff169050919050565b620005e96200129d565b620005f357600080fd5b600073ffffffffffffffffffffffffffffffffffffffff166003600083815260200190815260200160002060000160039054906101000a900473ffffffffffffffffffffffffffffffffffffffff1673ffffffffffffffffffffffffffffffffffffffff1614156200066457600080fd5b600115156003600083815260200190815260200160002060000160019054906101000a900460ff16151514156200069a57600080fd5b60016003600083815260200190815260200160002060000160016101000a81548160ff021916908315150217905550807f48030861b818deafd7def8853bcc8a6ec6bab746521a9546b79b8baab82dce6b60405160405180910390a250565b60008073ffffffffffffffffffffffffffffffffffffffff166003600085815260200190815260200160002060000160039054906101000a900473ffffffffffffffffffffffffffffffffffffffff1673ffffffffffffffffffffffffffffffffffffffff16146200076a57600080fd5b6000825114156200077a57600080fd5b60608251604051908082528060200260200182016040528015620007ad5781602001602082028038833980820191505090505b50905060008090505b83518110156200086b576000848281518110620007cf57fe5b6020026020010151604051602001620007e9919062001ee3565b6040516020818303038152906040528051906020012060001c90508482815181106200081157fe5b6020026020010151600460008381526020019081526020016000209080519060200190620008419291906200191a565b50808383815181106200085057fe5b602002602001018181525050508080600101915050620007b6565b506000809050600080905060008090506040518060e001604052808415158152602001831515815260200182151581526020013373ffffffffffffffffffffffffffffffffffffffff168152602001600073ffffffffffffffffffffffffffffffffffffffff168152602001858152602001888152506003600089815260200190815260200160002060008201518160000160006101000a81548160ff02191690831515021790555060208201518160000160016101000a81548160ff02191690831515021790555060408201518160000160026101000a81548160ff02191690831515021790555060608201518160000160036101000a81548173ffffffffffffffffffffffffffffffffffffffff021916908373ffffffffffffffffffffffffffffffffffffffff16021790555060808201518160010160006101000a81548173ffffffffffffffffffffffffffffffffffffffff021916908373ffffffffffffffffffffffffffffffffffffffff16021790555060a082015181600201908051906020019062000a00929190620019a1565b5060c08201518160030155905050863373ffffffffffffffffffffffffffffffffffffffff167fcf93cb8f3f726dd083e429df912bf338cc7f82cc3344b3ab5fa960ef0357e32160405160405180910390a38694505050505092915050565b62000a696200129d565b62000a7357600080fd5b62000a898160026200162f90919063ffffffff16565b8073ffffffffffffffffffffffffffffffffffffffff167fe1434e25d6611e0db941968fdc97811c982ac1602e951637d206f5fdda9dd8f160405160405180910390a250565b62000ad96200129d565b62000ae357600080fd5b600073ffffffffffffffffffffffffffffffffffffffff166003600083815260200190815260200160002060000160039054906101000a900473ffffffffffffffffffffffffffffffffffffffff1673ffffffffffffffffffffffffffffffffffffffff16141562000b5457600080fd5b600015156003600083815260200190815260200160002060000160019054906101000a900460ff161515141562000b8a57600080fd5b60006003600083815260200190815260200160002060000160016101000a81548160ff021916908315150217905550807ff12d3e50d9ed05d035c02b9f29e1da20004bce112d4fbe2cc0f0ba272ee5d97760405160405180910390a250565b62000bf36200129d565b62000bfd57600080fd5b62000c13816002620016de90919063ffffffff16565b8073ffffffffffffffffffffffffffffffffffffffff167fe366c1c0452ed8eec96861e9e54141ebff23c9ec89fe27b996b45f5ec388498760405160405180910390a250565b60006003600083815260200190815260200160002090508060000160029054906101000a900460ff161562000c8d57600080fd5b62000c976200129d565b8062000cf257508060000160039054906101000a900473ffffffffffffffffffffffffffffffffffffffff1673ffffffffffffffffffffffffffffffffffffffff163373ffffffffffffffffffffffffffffffffffffffff16145b62000cfc57600080fd5b60008160010160009054906101000a900473ffffffffffffffffffffffffffffffffffffffff1690508073ffffffffffffffffffffffffffffffffffffffff1663bb57a5ed6040518163ffffffff1660e01b8152600401600060405180830381600087803b15801562000d6e57600080fd5b505af115801562000d83573d6000803e3d6000fd5b5050505060018260000160026101000a81548160ff0219169083151502179055503373ffffffffffffffffffffffffffffffffffffffff16837fde05e689a2a03aa3267e2f457184c649b080aaa00013ed27d21b85bcb04901ff60405160405180910390a3505050565b60018054600181600116156101000203166002900480601f01602080910402602001604051908101604052809291908181526020018280546001816001161561010002031660029004801562000e875780601f1062000e5b5761010080835404028352916020019162000e87565b820191906000526020600020905b81548152906001019060200180831162000e6957829003601f168201915b505050505081565b6000806003600084815260200190815260200160002090508060000160009054906101000a900460ff1662000ec357600080fd5b3373ffffffffffffffffffffffffffffffffffffffff168160000160039054906101000a900473ffffffffffffffffffffffffffffffffffffffff1673ffffffffffffffffffffffffffffffffffffffff161462000f2057600080fd5b600073ffffffffffffffffffffffffffffffffffffffff168160010160009054906101000a900473ffffffffffffffffffffffffffffffffffffffff1673ffffffffffffffffffffffffffffffffffffffff161462000f7e57600080fd5b600083338360020160405162000f9490620019f3565b62000fa29392919062002008565b604051809103906000f08015801562000fbf573d6000803e3d6000fd5b5090508073ffffffffffffffffffffffffffffffffffffffff1663d0e30db0346040518263ffffffff1660e01b81526004016000604051808303818588803b1580156200100b57600080fd5b505af115801562001020573d6000803e3d6000fd5b5050505050808260010160006101000a81548173ffffffffffffffffffffffffffffffffffffffff021916908373ffffffffffffffffffffffffffffffffffffffff160217905550838260010160009054906101000a900473ffffffffffffffffffffffffffffffffffffffff1673ffffffffffffffffffffffffffffffffffffffff167f1bd63527042f119292b792487cee2f3e2f788737aa8ce9c0b5e79a2e17bd6bab60405160405180910390a38160010160009054906101000a900473ffffffffffffffffffffffffffffffffffffffff1692505050919050565b620011086200129d565b6200111257600080fd5b600073ffffffffffffffffffffffffffffffffffffffff166000809054906101000a900473ffffffffffffffffffffffffffffffffffffffff1673ffffffffffffffffffffffffffffffffffffffff167f8be0079c531659141344cd1fd0a4f28419497f9722a3daafe3b4186f6b6457e060405160405180910390a360008060006101000a81548173ffffffffffffffffffffffffffffffffffffffff021916908373ffffffffffffffffffffffffffffffffffffffff160217905550565b60036020528060005260406000206000915090508060000160009054906101000a900460ff16908060000160019054906101000a900460ff16908060000160029054906101000a900460ff16908060000160039054906101000a900473ffffffffffffffffffffffffffffffffffffffff16908060010160009054906101000a900473ffffffffffffffffffffffffffffffffffffffff16908060030154905086565b60008060009054906101000a900473ffffffffffffffffffffffffffffffffffffffff16905090565b60008060009054906101000a900473ffffffffffffffffffffffffffffffffffffffff1673ffffffffffffffffffffffffffffffffffffffff163373ffffffffffffffffffffffffffffffffffffffff1614905090565b620012fe6200129d565b6200130857600080fd5b6000600360008581526020019081526020016000209050600073ffffffffffffffffffffffffffffffffffffffff168160010160009054906101000a900473ffffffffffffffffffffffffffffffffffffffff1673ffffffffffffffffffffffffffffffffffffffff1614156200137e57600080fd5b80600201805490508251146200139357600080fd5b60008160010160009054906101000a900473ffffffffffffffffffffffffffffffffffffffff1690508073ffffffffffffffffffffffffffffffffffffffff1663356939ab85856040518363ffffffff1660e01b8152600401620013f99291906200204c565b600060405180830381600087803b1580156200141457600080fd5b505af115801562001429573d6000803e3d6000fd5b5050505083857f79f21a91842ed307e9fade5e30c0d0322ee9f1f64d3918e3d8b2815f02ce85d660405160405180910390a35050505050565b60046020528060005260406000206000915090508054600181600116156101000203166002900480601f0160208091040260200160405190810160405280929190818152602001828054600181600116156101000203166002900480156200150e5780601f10620014e2576101008083540402835291602001916200150e565b820191906000526020600020905b815481529060010190602001808311620014f057829003601f168201915b505050505081565b620015206200129d565b6200152a57600080fd5b6000600360008381526020019081526020016000209050600073ffffffffffffffffffffffffffffffffffffffff168160000160039054906101000a900473ffffffffffffffffffffffffffffffffffffffff1673ffffffffffffffffffffffffffffffffffffffff161415620015a057600080fd5b60018160000160006101000a81548160ff021916908315150217905550817f8fd81831397822207cf7571ac8b61f51ae7de628b05492a586bc63c3fd23bf8c60405160405180910390a25050565b620015f86200129d565b6200160257600080fd5b6200160d816200178e565b50565b6000620016288260026200188790919063ffffffff16565b9050919050565b600073ffffffffffffffffffffffffffffffffffffffff168173ffffffffffffffffffffffffffffffffffffffff1614156200166a57600080fd5b62001676828262001887565b6200168057600080fd5b60008260000160008373ffffffffffffffffffffffffffffffffffffffff1673ffffffffffffffffffffffffffffffffffffffff16815260200190815260200160002060006101000a81548160ff0219169083151502179055505050565b600073ffffffffffffffffffffffffffffffffffffffff168173ffffffffffffffffffffffffffffffffffffffff1614156200171957600080fd5b62001725828262001887565b156200173057600080fd5b60018260000160008373ffffffffffffffffffffffffffffffffffffffff1673ffffffffffffffffffffffffffffffffffffffff16815260200190815260200160002060006101000a81548160ff0219169083151502179055505050565b600073ffffffffffffffffffffffffffffffffffffffff168173ffffffffffffffffffffffffffffffffffffffff161415620017c957600080fd5b8073ffffffffffffffffffffffffffffffffffffffff166000809054906101000a900473ffffffffffffffffffffffffffffffffffffffff1673ffffffffffffffffffffffffffffffffffffffff167f8be0079c531659141344cd1fd0a4f28419497f9722a3daafe3b4186f6b6457e060405160405180910390a3806000806101000a81548173ffffffffffffffffffffffffffffffffffffffff021916908373ffffffffffffffffffffffffffffffffffffffff16021790555050565b60008073ffffffffffffffffffffffffffffffffffffffff168273ffffffffffffffffffffffffffffffffffffffff161415620018c357600080fd5b8260000160008373ffffffffffffffffffffffffffffffffffffffff1673ffffffffffffffffffffffffffffffffffffffff16815260200190815260200160002060009054906101000a900460ff16905092915050565b828054600181600116156101000203166002900490600052602060002090601f016020900481019282601f106200195d57805160ff19168380011785556200198e565b828001600101855582156200198e579182015b828111156200198d57825182559160200191906001019062001970565b5b5090506200199d919062001a01565b5090565b828054828255906000526020600020908101928215620019e0579160200282015b82811115620019df578251825591602001919060010190620019c2565b5b509050620019ef919062001a01565b5090565b61232d80620022f283390190565b62001a2691905b8082111562001a2257600081600090555060010162001a08565b5090565b90565b60008135905062001a3a81620022bd565b92915050565b600082601f83011262001a5257600080fd5b813562001a6962001a6382620020ae565b62002080565b9150818183526020840193506020810190508360005b8381101562001ab3578135860162001a98888262001b4a565b84526020840193506020830192505060018101905062001a7f565b5050505092915050565b600082601f83011262001acf57600080fd5b813562001ae662001ae082620020d7565b62002080565b9150818183526020840193506020810190508385602084028201111562001b0c57600080fd5b60005b8381101562001b40578162001b25888262001ba6565b84526020840193506020830192505060018101905062001b0f565b5050505092915050565b600082601f83011262001b5c57600080fd5b813562001b7362001b6d8262002100565b62002080565b9150808252602083016020830185838301111562001b9057600080fd5b62001b9d83828462002227565b50505092915050565b60008135905062001bb781620022d7565b92915050565b60006020828403121562001bd057600080fd5b600062001be08482850162001a29565b91505092915050565b60006020828403121562001bfc57600080fd5b600062001c0c8482850162001ba6565b91505092915050565b6000806040838503121562001c2957600080fd5b600062001c398582860162001ba6565b925050602083013567ffffffffffffffff81111562001c5757600080fd5b62001c658582860162001a40565b9150509250929050565b60008060006060848603121562001c8557600080fd5b600062001c958682870162001ba6565b935050602062001ca88682870162001ba6565b925050604084013567ffffffffffffffff81111562001cc657600080fd5b62001cd48682870162001abd565b9150509250925092565b600062001cec838362001ec1565b60208301905092915050565b62001d0381620021dd565b82525050565b62001d1481620021c9565b82525050565b600062001d27826200214c565b62001d33818562002192565b935062001d40836200212d565b8060005b8381101562001d7757815162001d5b888262001cde565b975062001d688362002178565b92505060018101905062001d44565b5085935050505092915050565b600062001d918262002157565b62001d9d818562002192565b935062001daa836200213a565b8060005b8381101562001dea5762001dc2826200228a565b62001dce888262001cde565b975062001ddb8362002185565b92505060018101905062001dae565b5085935050505092915050565b62001e0281620021f1565b82525050565b600062001e15826200216d565b62001e218185620021a3565b935062001e3381856020860162002236565b62001e3e816200229f565b840191505092915050565b600062001e568262002162565b62001e628185620021a3565b935062001e7481856020860162002236565b62001e7f816200229f565b840191505092915050565b600062001e978262002162565b62001ea38185620021b4565b935062001eb581856020860162002236565b80840191505092915050565b62001ecc816200221d565b82525050565b62001edd816200221d565b82525050565b600062001ef1828462001e8a565b915081905092915050565b600060208201905062001f13600083018462001d09565b92915050565b600060208201905062001f30600083018462001df7565b92915050565b600060c08201905062001f4d600083018962001df7565b62001f5c602083018862001df7565b62001f6b604083018762001df7565b62001f7a606083018662001d09565b62001f89608083018562001d09565b62001f9860a083018462001ed2565b979650505050505050565b6000602082019050818103600083015262001fbf818462001e49565b905092915050565b6000602082019050818103600083015262001fe3818462001e08565b905092915050565b600060208201905062002002600083018462001ed2565b92915050565b60006060820190506200201f600083018662001ed2565b6200202e602083018562001cf8565b818103604083015262002042818462001d84565b9050949350505050565b600060408201905062002063600083018562001ed2565b818103602083015262002077818462001d1a565b90509392505050565b6000604051905081810181811067ffffffffffffffff82111715620020a457600080fd5b8060405250919050565b600067ffffffffffffffff821115620020c657600080fd5b602082029050602081019050919050565b600067ffffffffffffffff821115620020ef57600080fd5b602082029050602081019050919050565b600067ffffffffffffffff8211156200211857600080fd5b601f19601f8301169050602081019050919050565b6000602082019050919050565b60008160005260206000209050919050565b600081519050919050565b600081549050919050565b600081519050919050565b600081519050919050565b6000602082019050919050565b6000600182019050919050565b600082825260208201905092915050565b600082825260208201905092915050565b600081905092915050565b6000819050919050565b6000620021d682620021fd565b9050919050565b6000620021ea82620021fd565b9050919050565b60008115159050919050565b600073ffffffffffffffffffffffffffffffffffffffff82169050919050565b6000819050919050565b82818337600083830152505050565b60005b838110156200225657808201518184015260208101905062002239565b8381111562002266576000848401525b50505050565b6000620022836200227d83620022b0565b620021bf565b9050919050565b60006200229882546200226c565b9050919050565b6000601f19601f8301169050919050565b60008160001c9050919050565b620022c881620021c9565b8114620022d457600080fd5b50565b620022e2816200221d565b8114620022ee57600080fd5b5056fe60806040523480156200001157600080fd5b506040516200232d3803806200232d833981018060405260608110156200003757600080fd5b81019080805190602001909291908051906020019092919080516401000000008111156200006457600080fd5b828101905060208101848111156200007b57600080fd5b81518560208202830111640100000000821117156200009957600080fd5b505092919050505081600073ffffffffffffffffffffffffffffffffffffffff168173ffffffffffffffffffffffffffffffffffffffff161415620000dd57600080fd5b806000806101000a81548173ffffffffffffffffffffffffffffffffffffffff021916908373ffffffffffffffffffffffffffffffffffffffff160217905550508260028190555033600160006101000a81548173ffffffffffffffffffffffffffffffffffffffff021916908373ffffffffffffffffffffffffffffffffffffffff16021790555080600890805190602001906200017e92919062000234565b5060008090505b6008805490508110156200022a576200019d62000286565b600181600001901515908115158152505081816020018181525050806007600060088581548110620001cb57fe5b9060005260206000200154815260200190815260200160002060008201518160000160006101000a81548160ff021916908315150217905550602082015181600101556040820151816002015590505050808060010191505062000185565b50505050620002d1565b82805482825590600052602060002090810192821562000273579160200282015b828111156200027257825182559160200191906001019062000255565b5b509050620002829190620002a9565b5090565b604051806060016040528060001515815260200160008152602001600081525090565b620002ce91905b80821115620002ca576000816000905550600101620002b0565b5090565b90565b61204c80620002e16000396000f3fe6080604052600436106101b65760003560e01c806373f93b2a116100ec578063bf032f531161008a578063d0e30db011610064578063d0e30db014610a8e578063d78e647f14610a98578063eda0ce1714610add578063fc1028bc14610b36576101b6565b8063bf032f53146108fb578063c5d0b14c146109c1578063c617519314610a22576101b6565b8063963dce43116100c6578063963dce4314610821578063af640d0f14610874578063bb57a5ed1461089f578063bbe58b0c146108b6576101b6565b806373f93b2a14610744578063747f75891461076f5780637b40855d146107c8576101b6565b8063356939ab11610159578063481c6a7511610133578063481c6a75146105e95780634c0b715c14610640578063590e1ae31461069d57806362372298146106b4576101b6565b8063356939ab146104c05780633697611a1461058f5780633fa911ae146105ba576101b6565b806312fa6feb1161019557806312fa6feb1461030e5780631bb62fc41461033d57806328cc413a146103905780632f750f201461042d576101b6565b8062ca5d92146101bb5780630d8e6e2c14610227578063109e94cf146102b7575b600080fd5b3480156101c757600080fd5b506101d0610b65565b6040518080602001828103825283818151815260200191508051906020019060200280838360005b838110156102135780820151818401526020810190506101f8565b505050509050019250505060405180910390f35b34801561023357600080fd5b5061023c610bbd565b6040518080602001828103825283818151815260200191508051906020019080838360005b8381101561027c578082015181840152602081019050610261565b50505050905090810190601f1680156102a95780820380516001836020036101000a031916815260200191505b509250505060405180910390f35b3480156102c357600080fd5b506102cc610cbd565b604051808273ffffffffffffffffffffffffffffffffffffffff1673ffffffffffffffffffffffffffffffffffffffff16815260200191505060405180910390f35b34801561031a57600080fd5b50610323610ce2565b604051808215151515815260200191505060405180910390f35b34801561034957600080fd5b506103766004803603602081101561036057600080fd5b8101908080359060200190929190505050610cf5565b604051808215151515815260200191505060405180910390f35b34801561039c57600080fd5b506103dd600480360360608110156103b357600080fd5b81019080803590602001909291908035906020019092919080359060200190929190505050610d15565b604051808473ffffffffffffffffffffffffffffffffffffffff1673ffffffffffffffffffffffffffffffffffffffff168152602001838152602001828152602001935050505060405180910390f35b34801561043957600080fd5b506104706004803603604081101561045057600080fd5b810190808035906020019092919080359060200190929190505050610e43565b604051808473ffffffffffffffffffffffffffffffffffffffff1673ffffffffffffffffffffffffffffffffffffffff168152602001838152602001828152602001935050505060405180910390f35b3480156104cc57600080fd5b5061058d600480360360408110156104e357600080fd5b81019080803590602001909291908035906020019064010000000081111561050a57600080fd5b82018360208201111561051c57600080fd5b8035906020019184602083028401116401000000008311171561053e57600080fd5b919080806020026020016040519081016040528093929190818152602001838360200280828437600081840152601f19601f820116905080830192505050505050509192919290505050610ed4565b005b34801561059b57600080fd5b506105a4610ff6565b6040518082815260200191505060405180910390f35b3480156105c657600080fd5b506105cf611003565b604051808215151515815260200191505060405180910390f35b3480156105f557600080fd5b506105fe6110ec565b604051808273ffffffffffffffffffffffffffffffffffffffff1673ffffffffffffffffffffffffffffffffffffffff16815260200191505060405180910390f35b34801561064c57600080fd5b506106836004803603604081101561066357600080fd5b810190808035906020019092919080359060200190929190505050611112565b604051808215151515815260200191505060405180910390f35b3480156106a957600080fd5b506106b26111f2565b005b3480156106c057600080fd5b506106ed600480360360208110156106d757600080fd5b81019080803590602001909291905050506112c1565b6040518080602001828103825283818151815260200191508051906020019060200280838360005b83811015610730578082015181840152602081019050610715565b505050509050019250505060405180910390f35b34801561075057600080fd5b506107596113d0565b6040518082815260200191505060405180910390f35b34801561077b57600080fd5b506107c66004803603608081101561079257600080fd5b81019080803590602001909291908035906020019092919080359060200190929190803590602001909291905050506113dd565b005b3480156107d457600080fd5b5061080b600480360360408110156107eb57600080fd5b8101908080359060200190929190803590602001909291905050506115b9565b6040518082815260200191505060405180910390f35b34801561082d57600080fd5b5061085a6004803603602081101561084457600080fd5b810190808035906020019092919050505061164c565b604051808215151515815260200191505060405180910390f35b34801561088057600080fd5b50610889611693565b6040518082815260200191505060405180910390f35b3480156108ab57600080fd5b506108b4611699565b005b3480156108c257600080fd5b506108f9600480360360408110156108d957600080fd5b81019080803590602001909291908035906020019092919050505061172a565b005b34801561090757600080fd5b5061093e6004803603604081101561091e57600080fd5b810190808035906020019092919080359060200190929190505050611947565b604051808573ffffffffffffffffffffffffffffffffffffffff1673ffffffffffffffffffffffffffffffffffffffff1681526020018473ffffffffffffffffffffffffffffffffffffffff1673ffffffffffffffffffffffffffffffffffffffff16815260200183815260200182815260200194505050505060405180910390f35b3480156109cd57600080fd5b506109fa600480360360208110156109e457600080fd5b8101908080359060200190929190505050611a52565b6040518084151515158152602001838152602001828152602001935050505060405180910390f35b348015610a2e57600080fd5b50610a37611a89565b6040518080602001828103825283818151815260200191508051906020019060200280838360005b83811015610a7a578082015181840152602081019050610a5f565b505050509050019250505060405180910390f35b610a96611ae1565b005b348015610aa457600080fd5b50610adb60048036036040811015610abb57600080fd5b810190808035906020019092919080359060200190929190505050611b10565b005b348015610ae957600080fd5b50610b2060048036036040811015610b0057600080fd5b810190808035906020019092919080359060200190929190505050611e01565b6040518082815260200191505060405180910390f35b348015610b4257600080fd5b50610b4b611e2f565b604051808215151515815260200191505060405180910390f35b60606008805480602002602001604051908101604052809291908181526020018280548015610bb357602002820191906000526020600020905b815481526020019060010190808311610b9f575b5050505050905090565b6060600160009054906101000a900473ffffffffffffffffffffffffffffffffffffffff1673ffffffffffffffffffffffffffffffffffffffff16630d8e6e2c6040518163ffffffff1660e01b815260040160006040518083038186803b158015610c2757600080fd5b505afa158015610c3b573d6000803e3d6000fd5b505050506040513d6000823e3d601f19601f820116820180604052506020811015610c6557600080fd5b810190808051640100000000811115610c7d57600080fd5b82810190506020810184811115610c9357600080fd5b8151856001820283011164010000000082111715610cb057600080fd5b5050929190505050905090565b6000809054906101000a900473ffffffffffffffffffffffffffffffffffffffff1681565b600360009054906101000a900460ff1681565b60046020528060005260406000206000915054906101000a900460ff1681565b60008060008060076000888152602001908152602001600020600301600087815260200190815260200160002090506007600088815260200190815260200160002060000160009054906101000a900460ff168015610d9157506004600087815260200190815260200160002060009054906101000a900460ff165b610d9a57600080fd5b80600001805490508510610dad57600080fd5b806000018581548110610dbc57fe5b906000526020600020906003020160000160009054906101000a900473ffffffffffffffffffffffffffffffffffffffff16816000018681548110610dfd57fe5b906000526020600020906003020160010154826000018781548110610e1e57fe5b9060005260206000209060030201600201548292509350935093505093509350939050565b600080600080600760008781526020019081526020016000206003016000868152602001908152602001600020905060008160000180549050905060008111610e8b57600080fd5b60008260010154905081811015610eb557610ea7888883610d15565b955095509550505050610ecd565b60008060008292508191508090509550955095505050505b9250925092565b600160009054906101000a900473ffffffffffffffffffffffffffffffffffffffff1673ffffffffffffffffffffffffffffffffffffffff163373ffffffffffffffffffffffffffffffffffffffff1614610f2e57600080fd5b6004600083815260200190815260200160002060009054906101000a900460ff16158015610f695750600360009054906101000a900460ff16155b610f7257600080fd5b60016004600084815260200190815260200160002060006101000a81548160ff02191690831515021790555080600560008481526020019081526020016000209080519060200190610fc5929190611fae565b5060068290806001815401808255809150509060018203906000526020600020016000909192909190915055505050565b6000600880549050905090565b600080600160009054906101000a900473ffffffffffffffffffffffffffffffffffffffff1673ffffffffffffffffffffffffffffffffffffffff16630f5147176002546040518263ffffffff1660e01b81526004018082815260200191505060206040518083038186803b15801561107b57600080fd5b505afa15801561108f573d6000803e3d6000fd5b505050506040513d60208110156110a557600080fd5b8101908080519060200190929190505050905060006110c2611e2f565b80156110da5750600360009054906101000a900460ff165b905081806110e55750805b9250505090565b600160009054906101000a900473ffffffffffffffffffffffffffffffffffffffff1681565b6000806007600085815260200190815260200160002090506004600084815260200190815260200160002060009054906101000a900460ff16801561116557508060000160009054906101000a900460ff165b61116e57600080fd5b600073ffffffffffffffffffffffffffffffffffffffff1660076000868152602001908152602001600020600301600085815260200190815260200160002060020160009054906101000a900473ffffffffffffffffffffffffffffffffffffffff1673ffffffffffffffffffffffffffffffffffffffff16141591505092915050565b6111fa611003565b61120357600080fd5b60003073ffffffffffffffffffffffffffffffffffffffff163190506000809054906101000a900473ffffffffffffffffffffffffffffffffffffffff1673ffffffffffffffffffffffffffffffffffffffff166108fc829081150290604051600060405180830381858888f19350505050158015611286573d6000803e3d6000fd5b507f3d2a04f53164bedf9a8a46353305d6b2d2261410406df3b41f99ce6489dc003c816040518082815260200191505060405180910390a150565b60606112cc8261164c565b6112d557600080fd5b600060076000848152602001908152602001600020905060606006805490506040519080825280602002602001820160405280156113225781602001602082028038833980820191505090505b50905060008090505b6006805490508110156113c55760006006828154811061134757fe5b9060005260206000200154905060008460030160008381526020019081526020016000209050600081600101549050600082600001828154811061138757fe5b9060005260206000209060030201600101549050808686815181106113a857fe5b60200260200101818152505050505050808060010191505061132b565b508092505050919050565b6000600680549050905090565b600060076000868152602001908152602001600020600301600085815260200190815260200160002090506004600085815260200190815260200160002060009054906101000a900460ff1680156114855750600073ffffffffffffffffffffffffffffffffffffffff168160020160009054906101000a900473ffffffffffffffffffffffffffffffffffffffff1673ffffffffffffffffffffffffffffffffffffffff16145b61148e57600080fd5b6007600086815260200190815260200160002060000160009054906101000a900460ff166114bb57600080fd5b8060000160405180606001604052803373ffffffffffffffffffffffffffffffffffffffff168152602001848152602001858152509080600181540180825580915050906001820390600052602060002090600302016000909192909190915060008201518160000160006101000a81548173ffffffffffffffffffffffffffffffffffffffff021916908373ffffffffffffffffffffffffffffffffffffffff1602179055506020820151816001015560408201518160020155505050600181600001805490500385857fe176ecde2cccccb4849f78f5d9f8378a179f72033c2fc649f90820a324cfaa7160405160405180910390a45050505050565b60008060076000858152602001908152602001600020600301600084815260200190815260200160002090506007600085815260200190815260200160002060000160009054906101000a900460ff16801561163257506004600084815260200190815260200160002060009054906101000a900460ff165b61163b57600080fd5b806000018054905091505092915050565b6000806007600084815260200190815260200160002090508060000160009054906101000a900460ff1661167f57600080fd5b600680549050816002015414915050919050565b60025481565b600160009054906101000a900473ffffffffffffffffffffffffffffffffffffffff1673ffffffffffffffffffffffffffffffffffffffff163373ffffffffffffffffffffffffffffffffffffffff16146116f357600080fd5b600360009054906101000a900460ff161561170d57600080fd5b6001600360006101000a81548160ff021916908315150217905550565b600160009054906101000a900473ffffffffffffffffffffffffffffffffffffffff1673ffffffffffffffffffffffffffffffffffffffff1663facd743b336040518263ffffffff1660e01b8152600401808273ffffffffffffffffffffffffffffffffffffffff1673ffffffffffffffffffffffffffffffffffffffff16815260200191505060206040518083038186803b1580156117c957600080fd5b505afa1580156117dd573d6000803e3d6000fd5b505050506040513d60208110156117f357600080fd5b810190808051906020019092919050505061180d57600080fd5b600060076000848152602001908152602001600020600301600083815260200190815260200160002090506004600083815260200190815260200160002060009054906101000a900460ff1680156118b55750600073ffffffffffffffffffffffffffffffffffffffff168160020160009054906101000a900473ffffffffffffffffffffffffffffffffffffffff1673ffffffffffffffffffffffffffffffffffffffff16145b6118be57600080fd5b80600001805490506118de60018360010154611e8890919063ffffffff16565b11156118e957600080fd5b60008160010154905061190a60018360010154611e8890919063ffffffff16565b82600101819055508083857fb25faf3bb93b5105c8bc184c6af20f251543b1fdd93cd5c6f9f31b13c138b91a60405160405180910390a450505050565b6000806000806119578686611112565b61196057600080fd5b600060076000888152602001908152602001600020600301600087815260200190815260200160002090506000816001015490508160000181815481106119a357fe5b906000526020600020906003020160000160009054906101000a900473ffffffffffffffffffffffffffffffffffffffff168260020160009054906101000a900473ffffffffffffffffffffffffffffffffffffffff16836000018381548110611a0957fe5b906000526020600020906003020160010154846000018481548110611a2a57fe5b9060005260206000209060030201600201548393509550955095509550505092959194509250565b60076020528060005260406000206000915090508060000160009054906101000a900460ff16908060010154908060020154905083565b60606006805480602002602001604051908101604052809291908181526020018280548015611ad757602002820191906000526020600020905b815481526020019060010190808311611ac3575b5050505050905090565b347f2a89b2e3d580398d6dc2db5e0f336b52602bbaa51afa9bb5cdf59239cf0d2bea60405160405180910390a2565b600160009054906101000a900473ffffffffffffffffffffffffffffffffffffffff1673ffffffffffffffffffffffffffffffffffffffff1663facd743b336040518263ffffffff1660e01b8152600401808273ffffffffffffffffffffffffffffffffffffffff1673ffffffffffffffffffffffffffffffffffffffff16815260200191505060206040518083038186803b158015611baf57600080fd5b505afa158015611bc3573d6000803e3d6000fd5b505050506040513d6020811015611bd957600080fd5b8101908080519060200190929190505050611bf357600080fd5b60006007600084815260200190815260200160002090508060000160009054906101000a900460ff16611c2557600080fd5b600081600301600084815260200190815260200160002090506004600084815260200190815260200160002060009054906101000a900460ff168015611cbb5750600073ffffffffffffffffffffffffffffffffffffffff168160020160009054906101000a900473ffffffffffffffffffffffffffffffffffffffff1673ffffffffffffffffffffffffffffffffffffffff16145b611cc457600080fd5b8060000180549050816001015410611cdb57600080fd5b600081600001826001015481548110611cf057fe5b906000526020600020906003020160000160009054906101000a900473ffffffffffffffffffffffffffffffffffffffff169050600060056000868152602001908152602001600020846001015481548110611d4857fe5b906000526020600020015490506000611d618383611ea7565b905080611d72575050505050611dfd565b338460020160006101000a81548173ffffffffffffffffffffffffffffffffffffffff021916908373ffffffffffffffffffffffffffffffffffffffff160217905550846002016000815480929190600101919050555085877f6e0dd2be4d72dbf12213042a47491e605ec38b66d076e6f74e9f458373080e3760405160405180910390a350505050505b5050565b60056020528160005260406000208181548110611e1a57fe5b90600052602060002001600091509150505481565b600080600090505b600880549050811015611e7f57611e6460088281548110611e5457fe5b906000526020600020015461164c565b611e72576000915050611e85565b8080600101915050611e37565b50600190505b90565b600080828401905083811015611e9d57600080fd5b8091505092915050565b6000803073ffffffffffffffffffffffffffffffffffffffff163190506000811480611ed257508281105b15611f0d577f5cc4d4e2397f909efdc05489f71c523c59913a6ffde292799faaca096635e16d60405160405180910390a16000915050611fa8565b8373ffffffffffffffffffffffffffffffffffffffff166108fc849081150290604051600060405180830381858888f19350505050158015611f53573d6000803e3d6000fd5b508373ffffffffffffffffffffffffffffffffffffffff167fbccbe05a3719eacef984f404dd2adff555adcc05fb72fb8b309bafbd462cd6f7846040518082815260200191505060405180910390a260019150505b92915050565b828054828255906000526020600020908101928215611fea579160200282015b82811115611fe9578251825591602001919060010190611fce565b5b509050611ff79190611ffb565b5090565b61201d91905b80821115612019576000816000905550600101612001565b5090565b9056fea165627a7a723058204aeb3ae6836753522ba8947e83b45c80fa4d07db592092344e8cde20c5f0bb8d0029a265627a7a72305820f9422a88b90a9a2773e29f31c58e0912866ab84c95d1c13972d4a6e94b7b09d26c6578706572696d656e74616cf50037",
  "source": "pragma solidity 0.5.8;\r\npragma experimental ABIEncoderV2;\r\n\r\nimport \"openzeppelin-solidity/contracts/ownership/Ownable.sol\";\r\nimport \"openzeppelin-solidity/contracts/access/Roles.sol\";\r\nimport \"./Stream.sol\";\r\nimport \"./Escrow.sol\";\r\nimport \"./ManagerInterface.sol\";\r\n\r\n\r\n/// @title Stream manager contract \r\n/// @dev Stream smart contract factory with extra functionality.\r\n/// The contract has the following responsabilities:\r\n///  * manages the validator list\r\n///  * manages Stream aproval & creation \r\n///  * manages refunds\r\ncontract StreamManager is ManagerInterface, Ownable {\r\n  using Roles for Roles.Role;\r\n\r\n  struct StreamRequest {\r\n    bool approved;\r\n    bool refund;\r\n    bool ended;\r\n    address client;\r\n    address stream;\r\n    uint256[] profiles;\r\n    uint256 streamId;\r\n  }\r\n\r\n  string public version;\r\n  Roles.Role private _validators;\r\n  mapping (uint256 => StreamRequest) public requests;\r\n  mapping (uint256 => string) public profiles;\r\n\r\n  constructor() public {\r\n    version = \"0.0.3\";\r\n  }\r\n  \r\n  /// @notice Manager can add validators.\r\n  function addValidator(address v) public onlyOwner {\r\n    _validators.add(v);\r\n\r\n    emit ValidatorAdded(v);\r\n  }\r\n\r\n  /// @notice Manager can remove validators.\r\n  function removeValidator(address v) public onlyOwner {\r\n    _validators.remove(v);\r\n\r\n    emit ValidatorRemoved(v);\r\n  }\r\n\r\n  /// @notice Query whether a certain address is a validator.\r\n  /// @dev Also used by the stream contract onlyValidator modifier.\r\n  function isValidator(address v) public view returns (bool) {\r\n    return _validators.has(v);\r\n  }\r\n\r\n  /// @notice Returns the contracts` version.\r\n  /// @dev Manager and stream contracts always have the same version. It is considered that if changes are\r\n  /// only made to the  \r\n  function getVersion() public view returns (string memory) {\r\n    return version;\r\n  }\r\n\r\n  /// @notice Users can request new streams (contracts).\r\n  /// @dev Each request is assigned an id based on the RTPM & client addres. \r\n  /// The stream id is generated later by the manager and is added when approveStreamCreation is called.\r\n  function requestStream(uint256 streamId, string[] memory profileNames) public returns (uint256) {    \r\n    require(requests[streamId].client == address(0));\r\n    require(profileNames.length != 0);\r\n\r\n    uint256[] memory profileHashes = new uint256[](profileNames.length);\r\n\r\n    for (uint i = 0; i < profileNames.length; i++) {\r\n      uint256 profileHash = uint256(keccak256(abi.encodePacked(profileNames[i])));\r\n      profiles[profileHash] = profileNames[i];\r\n      profileHashes[i] = profileHash;\r\n    }\r\n\r\n    bool approved = false;\r\n    bool refund = false;\r\n    bool ended = false;\r\n\r\n    requests[streamId] = StreamRequest(approved, refund, ended, msg.sender, address(0), profileHashes, streamId);\r\n    emit StreamRequested(msg.sender, streamId);\r\n\r\n    return streamId;\r\n  }\r\n\r\n  /// @notice Manager will review stream requests and approve them.\r\n  /// @dev \r\n  function approveStreamCreation(uint256 streamId) public onlyOwner {\r\n    StreamRequest storage request = requests[streamId];\r\n    require(request.client != address(0));\r\n\r\n    request.approved = true;\r\n\r\n    emit StreamApproved(streamId);\r\n  }\r\n\r\n  /// @notice After approval the client can create the stream. Also the client needs \r\n  /// to fund the escrow on creation.\r\n  /// @dev Will revert if stream is not approved, if methids is called by different account than\r\n  /// the requester or if stream is already created.\r\n  function createStream(uint256 streamId) public payable returns (address) {\r\n    StreamRequest storage request = requests[streamId];\r\n    require(request.approved);\r\n    require(request.client == msg.sender);\r\n    require(request.stream == address(0));\r\n\r\n    Stream stream = new Stream(streamId, msg.sender, request.profiles);\r\n    stream.deposit.value(msg.value)();\r\n\r\n    request.stream = address(stream);\r\n\r\n    emit StreamCreated(request.stream, streamId);\r\n\r\n    return request.stream;\r\n  }\r\n  \r\n  /// @notice Pushes a new input chunk id for the given stream\r\n  /// @dev Called by manager for now. Method is called as new input chunk ids are created by ingester\r\n  /// An array of wattages/rewards for each output must also be provided. The wattages indeces are equivalent \r\n  /// to the profile indeces, i.e. wattages[i] is the wattage for outStreams[i].index\r\n  /// To get the correct profile indices array call getProfileCount() on the stream contract\r\n  /// and then call outStreams(i) for each profile and extract the index\r\n  function addInputChunkId(uint256 streamId, uint256 chunkId, uint256[] memory wattages) public onlyOwner {\r\n    StreamRequest storage request = requests[streamId];\r\n    require(request.stream != address(0));\r\n    require(wattages.length == request.profiles.length);\r\n\r\n    Stream stream = Stream(request.stream);\r\n    stream.addInputChunkId(chunkId, wattages);\r\n\r\n    emit InputChunkAdded(streamId, chunkId);\r\n  }\r\n\r\n  /// @notice Signals that a stream has ended and no more input chunks are available\r\n  /// @dev Called by manager or client(owner)\r\n  function endStream(uint256 streamId) public {\r\n    StreamRequest storage request = requests[streamId];\r\n\r\n    require(!request.ended);    \r\n    require(isOwner() || msg.sender == request.client);\r\n\r\n    Stream stream = Stream(request.stream);\r\n    stream.endStream();\r\n\r\n    request.ended = true;\r\n\r\n    emit StreamEnded(streamId, msg.sender);\r\n  }\r\n\r\n  /// @dev TODO: maybe add a timelock to the refund too?\r\n\r\n  /// @notice Can check whether a client can refund the coins from a stream contract.\r\n  /// @dev Called by stream/escrow contract.\r\n  function refundAllowed(uint256 streamId) public view returns (bool) {\r\n    return requests[streamId].refund;\r\n  }\r\n\r\n  /// @notice Manager can allow client refunds.\r\n  /// @dev We check the stream id exists and that previous state was false; otherwise throw.\r\n  function allowRefund(uint256 streamId) public onlyOwner {\r\n    require(requests[streamId].client != address(0)); \r\n    require(requests[streamId].refund != true); \r\n\r\n    requests[streamId].refund = true;\r\n\r\n    emit RefundAllowed(streamId);\r\n  }\r\n\r\n  /// @notice Manager can revoke refund permission.\r\n  /// @dev We check the stream id exists and that previous state was false; otherwise throw.\r\n  function revokeRefund(uint256 streamId) public onlyOwner {\r\n    require(requests[streamId].client != address(0)); \r\n    require(requests[streamId].refund != false); \r\n    \r\n    requests[streamId].refund = false;\r\n\r\n    emit RefundRevoked(streamId);\r\n  }\r\n\r\n  /// @dev events\r\n  \r\n  event StreamRequested(address indexed client, uint256 indexed streamId);\r\n  event StreamApproved(uint256 indexed streamId);\r\n  event StreamCreated(address indexed streamAddress, uint256 indexed streamId);\r\n\r\n  event ValidatorAdded(address indexed validator);\r\n  event ValidatorRemoved(address indexed validator);\r\n\r\n  event RefundAllowed(uint256 indexed streamId);\r\n  event RefundRevoked(uint256 indexed streamId);\r\n\r\n  event InputChunkAdded(uint256 indexed streamId, uint256 indexed chunkId);\r\n  event StreamEnded(uint256 indexed streamId, address indexed caller);\r\n}\r\n",
  "sourcePath": "D:/work/blockchain/alpha-streaming-contract/contracts/StreamManager.sol",
  "compiler": {
    "name": "solc",
    "version": "0.5.8+commit.23d335f2.Emscripten.clang"
  },
  "schemaVersion": "3.0.10",
  "updatedAt": "2019-07-09T14:57:04.322Z",
  "devdoc": {
    "methods": {
      "allowRefund(uint256)": {
        "details": "We check the stream id exists and that previous state was false; otherwise throw."
      },
      "endStream(uint256)": {
        "details": "Called by manager or client(owner)"
      },
      "isOwner()": {
        "return": "true if `msg.sender` is the owner of the contract."
      },
      "isValidator(address)": {
        "details": "Also used by the stream contract onlyValidator modifier."
      },
      "owner()": {
        "return": "the address of the owner."
      },
      "refundAllowed(uint256)": {
        "details": "Called by stream/escrow contract."
      },
      "renounceOwnership()": {
        "details": "Allows the current owner to relinquish control of the contract. It will not be possible to call the functions with the `onlyOwner` modifier anymore."
      },
      "revokeRefund(uint256)": {
        "details": "We check the stream id exists and that previous state was false; otherwise throw."
      },
      "transferOwnership(address)": {
        "details": "Allows the current owner to transfer control of the contract to a newOwner.",
        "params": {
          "newOwner": "The address to transfer ownership to."
        }
      }
    }
  },
  "userdoc": {
    "methods": {
      "addInputChunkId(uint256,uint256,uint256[])": {
        "notice": "and then call outStreams(i) for each profile and extract the index"
      },
      "addValidator(address)": {
        "notice": "Manager can add validators."
      },
      "createStream(uint256)": {
        "notice": "the requester or if stream is already created."
      },
      "getVersion()": {
        "notice": "only made to the  "
      },
      "removeValidator(address)": {
        "notice": "Manager can remove validators."
      },
      "renounceOwnership()": {
        "notice": "Renouncing ownership will leave the contract without an owner, thereby removing any functionality that is only available to the owner."
      },
      "requestStream(uint256,string[])": {
        "notice": "The stream id is generated later by the manager and is added when approveStreamCreation is called."
      }
    },
    "notice": "* manages refunds"
  }
}