{
  "contractName": "Stream",
  "abi": [
    {
      "constant": true,
      "inputs": [],
      "name": "client",
      "outputs": [
        {
          "name": "",
          "type": "address"
        }
      ],
      "payable": false,
      "stateMutability": "view",
      "type": "function"
    },
    {
      "constant": true,
      "inputs": [],
      "name": "ended",
      "outputs": [
        {
          "name": "",
          "type": "bool"
        }
      ],
      "payable": false,
      "stateMutability": "view",
      "type": "function"
    },
    {
      "constant": true,
      "inputs": [
        {
          "name": "",
          "type": "uint256"
        }
      ],
      "name": "isChunk",
      "outputs": [
        {
          "name": "",
          "type": "bool"
        }
      ],
      "payable": false,
      "stateMutability": "view",
      "type": "function"
    },
    {
      "constant": true,
      "inputs": [],
      "name": "manager",
      "outputs": [
        {
          "name": "",
          "type": "address"
        }
      ],
      "payable": false,
      "stateMutability": "view",
      "type": "function"
    },
    {
      "constant": false,
      "inputs": [],
      "name": "refund",
      "outputs": [],
      "payable": false,
      "stateMutability": "nonpayable",
      "type": "function"
    },
    {
      "constant": true,
      "inputs": [],
      "name": "id",
      "outputs": [
        {
          "name": "",
          "type": "uint256"
        }
      ],
      "payable": false,
      "stateMutability": "view",
      "type": "function"
    },
    {
      "constant": true,
      "inputs": [
        {
          "name": "",
          "type": "uint256"
        }
      ],
      "name": "outStreams",
      "outputs": [
        {
          "name": "required",
          "type": "bool"
        },
        {
          "name": "index",
          "type": "uint256"
        },
        {
          "name": "validatedChunks",
          "type": "uint256"
        }
      ],
      "payable": false,
      "stateMutability": "view",
      "type": "function"
    },
    {
      "constant": false,
      "inputs": [],
      "name": "deposit",
      "outputs": [],
      "payable": true,
      "stateMutability": "payable",
      "type": "function"
    },
    {
      "constant": true,
      "inputs": [
        {
          "name": "",
          "type": "uint256"
        },
        {
          "name": "",
          "type": "uint256"
        }
      ],
      "name": "wattages",
      "outputs": [
        {
          "name": "",
          "type": "uint256"
        }
      ],
      "payable": false,
      "stateMutability": "view",
      "type": "function"
    },
    {
      "inputs": [
        {
          "name": "_id",
          "type": "uint256"
        },
        {
          "name": "client",
          "type": "address"
        },
        {
          "name": "profiles",
          "type": "uint256[]"
        }
      ],
      "payable": false,
      "stateMutability": "nonpayable",
      "type": "constructor"
    },
    {
      "anonymous": false,
      "inputs": [
        {
          "indexed": true,
          "name": "chunkId",
          "type": "uint256"
        },
        {
          "indexed": true,
          "name": "profile",
          "type": "uint256"
        },
        {
          "indexed": true,
          "name": "idx",
          "type": "uint256"
        }
      ],
      "name": "ChunkProofSubmited",
      "type": "event"
    },
    {
      "anonymous": false,
      "inputs": [
        {
          "indexed": true,
          "name": "profile",
          "type": "uint256"
        },
        {
          "indexed": true,
          "name": "chunkId",
          "type": "uint256"
        }
      ],
      "name": "ChunkProofValidated",
      "type": "event"
    },
    {
      "anonymous": false,
      "inputs": [
        {
          "indexed": true,
          "name": "profile",
          "type": "uint256"
        },
        {
          "indexed": true,
          "name": "chunkId",
          "type": "uint256"
        },
        {
          "indexed": true,
          "name": "idx",
          "type": "uint256"
        }
      ],
      "name": "ChunkProofScrapped",
      "type": "event"
    },
    {
      "anonymous": false,
      "inputs": [
        {
          "indexed": true,
          "name": "weiAmount",
          "type": "uint256"
        }
      ],
      "name": "Deposited",
      "type": "event"
    },
    {
      "anonymous": false,
      "inputs": [
        {
          "indexed": false,
          "name": "weiAmount",
          "type": "uint256"
        }
      ],
      "name": "Refunded",
      "type": "event"
    },
    {
      "anonymous": false,
      "inputs": [
        {
          "indexed": true,
          "name": "account",
          "type": "address"
        },
        {
          "indexed": false,
          "name": "weiAmount",
          "type": "uint256"
        }
      ],
      "name": "AccountFunded",
      "type": "event"
    },
    {
      "anonymous": false,
      "inputs": [],
      "name": "OutOfFunds",
      "type": "event"
    },
    {
      "constant": false,
      "inputs": [
        {
          "name": "chunkId",
          "type": "uint256"
        },
        {
          "name": "wattage",
          "type": "uint256[]"
        }
      ],
      "name": "addInputChunkId",
      "outputs": [],
      "payable": false,
      "stateMutability": "nonpayable",
      "type": "function"
    },
    {
      "constant": false,
      "inputs": [],
      "name": "endStream",
      "outputs": [],
      "payable": false,
      "stateMutability": "nonpayable",
      "type": "function"
    },
    {
      "constant": false,
      "inputs": [
        {
          "name": "profile",
          "type": "uint256"
        },
        {
          "name": "chunkId",
          "type": "uint256"
        },
        {
          "name": "proof",
          "type": "uint256"
        },
        {
          "name": "outChunkId",
          "type": "uint256"
        }
      ],
      "name": "submitProof",
      "outputs": [],
      "payable": false,
      "stateMutability": "nonpayable",
      "type": "function"
    },
    {
      "constant": false,
      "inputs": [
        {
          "name": "profile",
          "type": "uint256"
        },
        {
          "name": "chunkId",
          "type": "uint256"
        }
      ],
      "name": "validateProof",
      "outputs": [],
      "payable": false,
      "stateMutability": "nonpayable",
      "type": "function"
    },
    {
      "constant": false,
      "inputs": [
        {
          "name": "profile",
          "type": "uint256"
        },
        {
          "name": "chunkId",
          "type": "uint256"
        }
      ],
      "name": "scrapProof",
      "outputs": [],
      "payable": false,
      "stateMutability": "nonpayable",
      "type": "function"
    },
    {
      "constant": true,
      "inputs": [
        {
          "name": "profile",
          "type": "uint256"
        },
        {
          "name": "chunkId",
          "type": "uint256"
        }
      ],
      "name": "hasValidProof",
      "outputs": [
        {
          "name": "",
          "type": "bool"
        }
      ],
      "payable": false,
      "stateMutability": "view",
      "type": "function"
    },
    {
      "constant": true,
      "inputs": [
        {
          "name": "profile",
          "type": "uint256"
        },
        {
          "name": "chunkId",
          "type": "uint256"
        }
      ],
      "name": "getValidProof",
      "outputs": [
        {
          "name": "miner",
          "type": "address"
        },
        {
          "name": "validator",
          "type": "address"
        },
        {
          "name": "outputChunkId",
          "type": "uint256"
        },
        {
          "name": "proof",
          "type": "uint256"
        }
      ],
      "payable": false,
      "stateMutability": "view",
      "type": "function"
    },
    {
      "constant": true,
      "inputs": [
        {
          "name": "profile",
          "type": "uint256"
        },
        {
          "name": "chunkId",
          "type": "uint256"
        }
      ],
      "name": "getCandidateProof",
      "outputs": [
        {
          "name": "miner",
          "type": "address"
        },
        {
          "name": "outputChunkId",
          "type": "uint256"
        },
        {
          "name": "proof",
          "type": "uint256"
        }
      ],
      "payable": false,
      "stateMutability": "view",
      "type": "function"
    },
    {
      "constant": true,
      "inputs": [
        {
          "name": "profile",
          "type": "uint256"
        },
        {
          "name": "chunkId",
          "type": "uint256"
        }
      ],
      "name": "getProofCount",
      "outputs": [
        {
          "name": "",
          "type": "uint256"
        }
      ],
      "payable": false,
      "stateMutability": "view",
      "type": "function"
    },
    {
      "constant": true,
      "inputs": [
        {
          "name": "profile",
          "type": "uint256"
        },
        {
          "name": "chunkId",
          "type": "uint256"
        },
        {
          "name": "idx",
          "type": "uint256"
        }
      ],
      "name": "getProof",
      "outputs": [
        {
          "name": "miner",
          "type": "address"
        },
        {
          "name": "outputChunkId",
          "type": "uint256"
        },
        {
          "name": "proof",
          "type": "uint256"
        }
      ],
      "payable": false,
      "stateMutability": "view",
      "type": "function"
    },
    {
      "constant": true,
      "inputs": [],
      "name": "isTranscodingDone",
      "outputs": [
        {
          "name": "",
          "type": "bool"
        }
      ],
      "payable": false,
      "stateMutability": "view",
      "type": "function"
    },
    {
      "constant": true,
      "inputs": [
        {
          "name": "profile",
          "type": "uint256"
        }
      ],
      "name": "isBitrateTranscoded",
      "outputs": [
        {
          "name": "",
          "type": "bool"
        }
      ],
      "payable": false,
      "stateMutability": "view",
      "type": "function"
    },
    {
      "constant": true,
      "inputs": [],
      "name": "getprofiles",
      "outputs": [
        {
          "name": "",
          "type": "uint256[]"
        }
      ],
      "payable": false,
      "stateMutability": "view",
      "type": "function"
    },
    {
      "constant": true,
      "inputs": [],
      "name": "getProfileCount",
      "outputs": [
        {
          "name": "",
          "type": "uint256"
        }
      ],
      "payable": false,
      "stateMutability": "view",
      "type": "function"
    },
    {
      "constant": true,
      "inputs": [],
      "name": "getInChunks",
      "outputs": [
        {
          "name": "",
          "type": "uint256[]"
        }
      ],
      "payable": false,
      "stateMutability": "view",
      "type": "function"
    },
    {
      "constant": true,
      "inputs": [],
      "name": "getInChunkCount",
      "outputs": [
        {
          "name": "",
          "type": "uint256"
        }
      ],
      "payable": false,
      "stateMutability": "view",
      "type": "function"
    },
    {
      "constant": true,
      "inputs": [
        {
          "name": "profile",
          "type": "uint256"
        }
      ],
      "name": "getOutChunks",
      "outputs": [
        {
          "name": "",
          "type": "uint256[]"
        }
      ],
      "payable": false,
      "stateMutability": "view",
      "type": "function"
    },
    {
      "constant": true,
      "inputs": [],
      "name": "getVersion",
      "outputs": [
        {
          "name": "",
          "type": "string"
        }
      ],
      "payable": false,
      "stateMutability": "view",
      "type": "function"
    },
    {
      "constant": true,
      "inputs": [],
      "name": "refundAllowed",
      "outputs": [
        {
          "name": "",
          "type": "bool"
        }
      ],
      "payable": false,
      "stateMutability": "view",
      "type": "function"
    }
  ],
  "bytecode": "0x60806040523480156200001157600080fd5b506040516200232d3803806200232d833981018060405260608110156200003757600080fd5b81019080805190602001909291908051906020019092919080516401000000008111156200006457600080fd5b828101905060208101848111156200007b57600080fd5b81518560208202830111640100000000821117156200009957600080fd5b505092919050505081600073ffffffffffffffffffffffffffffffffffffffff168173ffffffffffffffffffffffffffffffffffffffff161415620000dd57600080fd5b806000806101000a81548173ffffffffffffffffffffffffffffffffffffffff021916908373ffffffffffffffffffffffffffffffffffffffff160217905550508260028190555033600160006101000a81548173ffffffffffffffffffffffffffffffffffffffff021916908373ffffffffffffffffffffffffffffffffffffffff16021790555080600890805190602001906200017e92919062000234565b5060008090505b6008805490508110156200022a576200019d62000286565b600181600001901515908115158152505081816020018181525050806007600060088581548110620001cb57fe5b9060005260206000200154815260200190815260200160002060008201518160000160006101000a81548160ff021916908315150217905550602082015181600101556040820151816002015590505050808060010191505062000185565b50505050620002d1565b82805482825590600052602060002090810192821562000273579160200282015b828111156200027257825182559160200191906001019062000255565b5b509050620002829190620002a9565b5090565b604051806060016040528060001515815260200160008152602001600081525090565b620002ce91905b80821115620002ca576000816000905550600101620002b0565b5090565b90565b61204c80620002e16000396000f3fe6080604052600436106101b65760003560e01c806373f93b2a116100ec578063bf032f531161008a578063d0e30db011610064578063d0e30db014610a8e578063d78e647f14610a98578063eda0ce1714610add578063fc1028bc14610b36576101b6565b8063bf032f53146108fb578063c5d0b14c146109c1578063c617519314610a22576101b6565b8063963dce43116100c6578063963dce4314610821578063af640d0f14610874578063bb57a5ed1461089f578063bbe58b0c146108b6576101b6565b806373f93b2a14610744578063747f75891461076f5780637b40855d146107c8576101b6565b8063356939ab11610159578063481c6a7511610133578063481c6a75146105e95780634c0b715c14610640578063590e1ae31461069d57806362372298146106b4576101b6565b8063356939ab146104c05780633697611a1461058f5780633fa911ae146105ba576101b6565b806312fa6feb1161019557806312fa6feb1461030e5780631bb62fc41461033d57806328cc413a146103905780632f750f201461042d576101b6565b8062ca5d92146101bb5780630d8e6e2c14610227578063109e94cf146102b7575b600080fd5b3480156101c757600080fd5b506101d0610b65565b6040518080602001828103825283818151815260200191508051906020019060200280838360005b838110156102135780820151818401526020810190506101f8565b505050509050019250505060405180910390f35b34801561023357600080fd5b5061023c610bbd565b6040518080602001828103825283818151815260200191508051906020019080838360005b8381101561027c578082015181840152602081019050610261565b50505050905090810190601f1680156102a95780820380516001836020036101000a031916815260200191505b509250505060405180910390f35b3480156102c357600080fd5b506102cc610cbd565b604051808273ffffffffffffffffffffffffffffffffffffffff1673ffffffffffffffffffffffffffffffffffffffff16815260200191505060405180910390f35b34801561031a57600080fd5b50610323610ce2565b604051808215151515815260200191505060405180910390f35b34801561034957600080fd5b506103766004803603602081101561036057600080fd5b8101908080359060200190929190505050610cf5565b604051808215151515815260200191505060405180910390f35b34801561039c57600080fd5b506103dd600480360360608110156103b357600080fd5b81019080803590602001909291908035906020019092919080359060200190929190505050610d15565b604051808473ffffffffffffffffffffffffffffffffffffffff1673ffffffffffffffffffffffffffffffffffffffff168152602001838152602001828152602001935050505060405180910390f35b34801561043957600080fd5b506104706004803603604081101561045057600080fd5b810190808035906020019092919080359060200190929190505050610e43565b604051808473ffffffffffffffffffffffffffffffffffffffff1673ffffffffffffffffffffffffffffffffffffffff168152602001838152602001828152602001935050505060405180910390f35b3480156104cc57600080fd5b5061058d600480360360408110156104e357600080fd5b81019080803590602001909291908035906020019064010000000081111561050a57600080fd5b82018360208201111561051c57600080fd5b8035906020019184602083028401116401000000008311171561053e57600080fd5b919080806020026020016040519081016040528093929190818152602001838360200280828437600081840152601f19601f820116905080830192505050505050509192919290505050610ed4565b005b34801561059b57600080fd5b506105a4610ff6565b6040518082815260200191505060405180910390f35b3480156105c657600080fd5b506105cf611003565b604051808215151515815260200191505060405180910390f35b3480156105f557600080fd5b506105fe6110ec565b604051808273ffffffffffffffffffffffffffffffffffffffff1673ffffffffffffffffffffffffffffffffffffffff16815260200191505060405180910390f35b34801561064c57600080fd5b506106836004803603604081101561066357600080fd5b810190808035906020019092919080359060200190929190505050611112565b604051808215151515815260200191505060405180910390f35b3480156106a957600080fd5b506106b26111f2565b005b3480156106c057600080fd5b506106ed600480360360208110156106d757600080fd5b81019080803590602001909291905050506112c1565b6040518080602001828103825283818151815260200191508051906020019060200280838360005b83811015610730578082015181840152602081019050610715565b505050509050019250505060405180910390f35b34801561075057600080fd5b506107596113d0565b6040518082815260200191505060405180910390f35b34801561077b57600080fd5b506107c66004803603608081101561079257600080fd5b81019080803590602001909291908035906020019092919080359060200190929190803590602001909291905050506113dd565b005b3480156107d457600080fd5b5061080b600480360360408110156107eb57600080fd5b8101908080359060200190929190803590602001909291905050506115b9565b6040518082815260200191505060405180910390f35b34801561082d57600080fd5b5061085a6004803603602081101561084457600080fd5b810190808035906020019092919050505061164c565b604051808215151515815260200191505060405180910390f35b34801561088057600080fd5b50610889611693565b6040518082815260200191505060405180910390f35b3480156108ab57600080fd5b506108b4611699565b005b3480156108c257600080fd5b506108f9600480360360408110156108d957600080fd5b81019080803590602001909291908035906020019092919050505061172a565b005b34801561090757600080fd5b5061093e6004803603604081101561091e57600080fd5b810190808035906020019092919080359060200190929190505050611947565b604051808573ffffffffffffffffffffffffffffffffffffffff1673ffffffffffffffffffffffffffffffffffffffff1681526020018473ffffffffffffffffffffffffffffffffffffffff1673ffffffffffffffffffffffffffffffffffffffff16815260200183815260200182815260200194505050505060405180910390f35b3480156109cd57600080fd5b506109fa600480360360208110156109e457600080fd5b8101908080359060200190929190505050611a52565b6040518084151515158152602001838152602001828152602001935050505060405180910390f35b348015610a2e57600080fd5b50610a37611a89565b6040518080602001828103825283818151815260200191508051906020019060200280838360005b83811015610a7a578082015181840152602081019050610a5f565b505050509050019250505060405180910390f35b610a96611ae1565b005b348015610aa457600080fd5b50610adb60048036036040811015610abb57600080fd5b810190808035906020019092919080359060200190929190505050611b10565b005b348015610ae957600080fd5b50610b2060048036036040811015610b0057600080fd5b810190808035906020019092919080359060200190929190505050611e01565b6040518082815260200191505060405180910390f35b348015610b4257600080fd5b50610b4b611e2f565b604051808215151515815260200191505060405180910390f35b60606008805480602002602001604051908101604052809291908181526020018280548015610bb357602002820191906000526020600020905b815481526020019060010190808311610b9f575b5050505050905090565b6060600160009054906101000a900473ffffffffffffffffffffffffffffffffffffffff1673ffffffffffffffffffffffffffffffffffffffff16630d8e6e2c6040518163ffffffff1660e01b815260040160006040518083038186803b158015610c2757600080fd5b505afa158015610c3b573d6000803e3d6000fd5b505050506040513d6000823e3d601f19601f820116820180604052506020811015610c6557600080fd5b810190808051640100000000811115610c7d57600080fd5b82810190506020810184811115610c9357600080fd5b8151856001820283011164010000000082111715610cb057600080fd5b5050929190505050905090565b6000809054906101000a900473ffffffffffffffffffffffffffffffffffffffff1681565b600360009054906101000a900460ff1681565b60046020528060005260406000206000915054906101000a900460ff1681565b60008060008060076000888152602001908152602001600020600301600087815260200190815260200160002090506007600088815260200190815260200160002060000160009054906101000a900460ff168015610d9157506004600087815260200190815260200160002060009054906101000a900460ff165b610d9a57600080fd5b80600001805490508510610dad57600080fd5b806000018581548110610dbc57fe5b906000526020600020906003020160000160009054906101000a900473ffffffffffffffffffffffffffffffffffffffff16816000018681548110610dfd57fe5b906000526020600020906003020160010154826000018781548110610e1e57fe5b9060005260206000209060030201600201548292509350935093505093509350939050565b600080600080600760008781526020019081526020016000206003016000868152602001908152602001600020905060008160000180549050905060008111610e8b57600080fd5b60008260010154905081811015610eb557610ea7888883610d15565b955095509550505050610ecd565b60008060008292508191508090509550955095505050505b9250925092565b600160009054906101000a900473ffffffffffffffffffffffffffffffffffffffff1673ffffffffffffffffffffffffffffffffffffffff163373ffffffffffffffffffffffffffffffffffffffff1614610f2e57600080fd5b6004600083815260200190815260200160002060009054906101000a900460ff16158015610f695750600360009054906101000a900460ff16155b610f7257600080fd5b60016004600084815260200190815260200160002060006101000a81548160ff02191690831515021790555080600560008481526020019081526020016000209080519060200190610fc5929190611fae565b5060068290806001815401808255809150509060018203906000526020600020016000909192909190915055505050565b6000600880549050905090565b600080600160009054906101000a900473ffffffffffffffffffffffffffffffffffffffff1673ffffffffffffffffffffffffffffffffffffffff16630f5147176002546040518263ffffffff1660e01b81526004018082815260200191505060206040518083038186803b15801561107b57600080fd5b505afa15801561108f573d6000803e3d6000fd5b505050506040513d60208110156110a557600080fd5b8101908080519060200190929190505050905060006110c2611e2f565b80156110da5750600360009054906101000a900460ff165b905081806110e55750805b9250505090565b600160009054906101000a900473ffffffffffffffffffffffffffffffffffffffff1681565b6000806007600085815260200190815260200160002090506004600084815260200190815260200160002060009054906101000a900460ff16801561116557508060000160009054906101000a900460ff165b61116e57600080fd5b600073ffffffffffffffffffffffffffffffffffffffff1660076000868152602001908152602001600020600301600085815260200190815260200160002060020160009054906101000a900473ffffffffffffffffffffffffffffffffffffffff1673ffffffffffffffffffffffffffffffffffffffff16141591505092915050565b6111fa611003565b61120357600080fd5b60003073ffffffffffffffffffffffffffffffffffffffff163190506000809054906101000a900473ffffffffffffffffffffffffffffffffffffffff1673ffffffffffffffffffffffffffffffffffffffff166108fc829081150290604051600060405180830381858888f19350505050158015611286573d6000803e3d6000fd5b507f3d2a04f53164bedf9a8a46353305d6b2d2261410406df3b41f99ce6489dc003c816040518082815260200191505060405180910390a150565b60606112cc8261164c565b6112d557600080fd5b600060076000848152602001908152602001600020905060606006805490506040519080825280602002602001820160405280156113225781602001602082028038833980820191505090505b50905060008090505b6006805490508110156113c55760006006828154811061134757fe5b9060005260206000200154905060008460030160008381526020019081526020016000209050600081600101549050600082600001828154811061138757fe5b9060005260206000209060030201600101549050808686815181106113a857fe5b60200260200101818152505050505050808060010191505061132b565b508092505050919050565b6000600680549050905090565b600060076000868152602001908152602001600020600301600085815260200190815260200160002090506004600085815260200190815260200160002060009054906101000a900460ff1680156114855750600073ffffffffffffffffffffffffffffffffffffffff168160020160009054906101000a900473ffffffffffffffffffffffffffffffffffffffff1673ffffffffffffffffffffffffffffffffffffffff16145b61148e57600080fd5b6007600086815260200190815260200160002060000160009054906101000a900460ff166114bb57600080fd5b8060000160405180606001604052803373ffffffffffffffffffffffffffffffffffffffff168152602001848152602001858152509080600181540180825580915050906001820390600052602060002090600302016000909192909190915060008201518160000160006101000a81548173ffffffffffffffffffffffffffffffffffffffff021916908373ffffffffffffffffffffffffffffffffffffffff1602179055506020820151816001015560408201518160020155505050600181600001805490500385857fe176ecde2cccccb4849f78f5d9f8378a179f72033c2fc649f90820a324cfaa7160405160405180910390a45050505050565b60008060076000858152602001908152602001600020600301600084815260200190815260200160002090506007600085815260200190815260200160002060000160009054906101000a900460ff16801561163257506004600084815260200190815260200160002060009054906101000a900460ff165b61163b57600080fd5b806000018054905091505092915050565b6000806007600084815260200190815260200160002090508060000160009054906101000a900460ff1661167f57600080fd5b600680549050816002015414915050919050565b60025481565b600160009054906101000a900473ffffffffffffffffffffffffffffffffffffffff1673ffffffffffffffffffffffffffffffffffffffff163373ffffffffffffffffffffffffffffffffffffffff16146116f357600080fd5b600360009054906101000a900460ff161561170d57600080fd5b6001600360006101000a81548160ff021916908315150217905550565b600160009054906101000a900473ffffffffffffffffffffffffffffffffffffffff1673ffffffffffffffffffffffffffffffffffffffff1663facd743b336040518263ffffffff1660e01b8152600401808273ffffffffffffffffffffffffffffffffffffffff1673ffffffffffffffffffffffffffffffffffffffff16815260200191505060206040518083038186803b1580156117c957600080fd5b505afa1580156117dd573d6000803e3d6000fd5b505050506040513d60208110156117f357600080fd5b810190808051906020019092919050505061180d57600080fd5b600060076000848152602001908152602001600020600301600083815260200190815260200160002090506004600083815260200190815260200160002060009054906101000a900460ff1680156118b55750600073ffffffffffffffffffffffffffffffffffffffff168160020160009054906101000a900473ffffffffffffffffffffffffffffffffffffffff1673ffffffffffffffffffffffffffffffffffffffff16145b6118be57600080fd5b80600001805490506118de60018360010154611e8890919063ffffffff16565b11156118e957600080fd5b60008160010154905061190a60018360010154611e8890919063ffffffff16565b82600101819055508083857fb25faf3bb93b5105c8bc184c6af20f251543b1fdd93cd5c6f9f31b13c138b91a60405160405180910390a450505050565b6000806000806119578686611112565b61196057600080fd5b600060076000888152602001908152602001600020600301600087815260200190815260200160002090506000816001015490508160000181815481106119a357fe5b906000526020600020906003020160000160009054906101000a900473ffffffffffffffffffffffffffffffffffffffff168260020160009054906101000a900473ffffffffffffffffffffffffffffffffffffffff16836000018381548110611a0957fe5b906000526020600020906003020160010154846000018481548110611a2a57fe5b9060005260206000209060030201600201548393509550955095509550505092959194509250565b60076020528060005260406000206000915090508060000160009054906101000a900460ff16908060010154908060020154905083565b60606006805480602002602001604051908101604052809291908181526020018280548015611ad757602002820191906000526020600020905b815481526020019060010190808311611ac3575b5050505050905090565b347f2a89b2e3d580398d6dc2db5e0f336b52602bbaa51afa9bb5cdf59239cf0d2bea60405160405180910390a2565b600160009054906101000a900473ffffffffffffffffffffffffffffffffffffffff1673ffffffffffffffffffffffffffffffffffffffff1663facd743b336040518263ffffffff1660e01b8152600401808273ffffffffffffffffffffffffffffffffffffffff1673ffffffffffffffffffffffffffffffffffffffff16815260200191505060206040518083038186803b158015611baf57600080fd5b505afa158015611bc3573d6000803e3d6000fd5b505050506040513d6020811015611bd957600080fd5b8101908080519060200190929190505050611bf357600080fd5b60006007600084815260200190815260200160002090508060000160009054906101000a900460ff16611c2557600080fd5b600081600301600084815260200190815260200160002090506004600084815260200190815260200160002060009054906101000a900460ff168015611cbb5750600073ffffffffffffffffffffffffffffffffffffffff168160020160009054906101000a900473ffffffffffffffffffffffffffffffffffffffff1673ffffffffffffffffffffffffffffffffffffffff16145b611cc457600080fd5b8060000180549050816001015410611cdb57600080fd5b600081600001826001015481548110611cf057fe5b906000526020600020906003020160000160009054906101000a900473ffffffffffffffffffffffffffffffffffffffff169050600060056000868152602001908152602001600020846001015481548110611d4857fe5b906000526020600020015490506000611d618383611ea7565b905080611d72575050505050611dfd565b338460020160006101000a81548173ffffffffffffffffffffffffffffffffffffffff021916908373ffffffffffffffffffffffffffffffffffffffff160217905550846002016000815480929190600101919050555085877f6e0dd2be4d72dbf12213042a47491e605ec38b66d076e6f74e9f458373080e3760405160405180910390a350505050505b5050565b60056020528160005260406000208181548110611e1a57fe5b90600052602060002001600091509150505481565b600080600090505b600880549050811015611e7f57611e6460088281548110611e5457fe5b906000526020600020015461164c565b611e72576000915050611e85565b8080600101915050611e37565b50600190505b90565b600080828401905083811015611e9d57600080fd5b8091505092915050565b6000803073ffffffffffffffffffffffffffffffffffffffff163190506000811480611ed257508281105b15611f0d577f5cc4d4e2397f909efdc05489f71c523c59913a6ffde292799faaca096635e16d60405160405180910390a16000915050611fa8565b8373ffffffffffffffffffffffffffffffffffffffff166108fc849081150290604051600060405180830381858888f19350505050158015611f53573d6000803e3d6000fd5b508373ffffffffffffffffffffffffffffffffffffffff167fbccbe05a3719eacef984f404dd2adff555adcc05fb72fb8b309bafbd462cd6f7846040518082815260200191505060405180910390a260019150505b92915050565b828054828255906000526020600020908101928215611fea579160200282015b82811115611fe9578251825591602001919060010190611fce565b5b509050611ff79190611ffb565b5090565b61201d91905b80821115612019576000816000905550600101612001565b5090565b9056fea165627a7a723058204aeb3ae6836753522ba8947e83b45c80fa4d07db592092344e8cde20c5f0bb8d0029",
  "source": "pragma solidity 0.5.8;\r\n\r\nimport \"openzeppelin-solidity/contracts/math/SafeMath.sol\";\r\nimport \"./ManagerInterface.sol\";\r\nimport \"./Escrow.sol\";\r\n\r\n/// @title Stream smart contract \r\n/// @dev Represents a video transcode job - is created by a client.\r\n/// The video is split in chunks; miners submit proofs for each chunk for each profile.\r\n/// Validators approve miner proofs.\r\n/// Because the solidity 0.5.8 compiler does not support ABI encoding for \r\n/// structs(except with the experimental flag which casts all the values to strings)\r\n/// we sometimes return the 'destructured' objects.\r\n/// The contract holds a list of input chunk ids (_inChunkIds) and of requested profiles (_profiles).\r\n/// Each requested profile has an Outstream and each Outstream stores a dictionary of \r\n/// proof queues mapped for each input chunk. The proof queues store the proofs & ouput chunks\r\n/// submited by miners.\r\n\r\ncontract Stream is Escrow {\r\n  using SafeMath for uint256;\r\n\r\n  struct Proof {\r\n    address payable miner;\r\n    uint256 outputChunkId;\r\n    uint256 proof;\r\n  }\r\n\r\n  /// @notice Simple queue-like data structure used for proof submission and validation.\r\n  /// @dev Head is used to determine FIFO order for miner proof submission & validation.\r\n  /// New proofs are pushed at the back of the array. Head increments when a proof discarded\r\n  /// and it points at oldest proof (first to be validated).\r\n  /// A proof is valid if ChunkProofQueue.validator != address(0).\r\n  /// The proof is found at ChunkProofQueue.proofs[ChunkProofQueue.head]\r\n  struct ChunkProofQueue {\r\n    Proof[] proofs;\r\n    uint256 head;\r\n    address validator;\r\n  }\r\n\r\n  /// @title OutStream\r\n  /// @dev The struct holds a map from chunkId to proof queues.\r\n  /// There is one OutStream per profile requested by client.\r\n  struct OutStream {\r\n    bool required;\r\n    uint256 index;\r\n    uint256 validatedChunks;\r\n    mapping (uint256 => ChunkProofQueue) proofQueues;\r\n  }\r\n\r\n  address public manager;\r\n  uint256 public id;\r\n  bool public ended;\r\n\r\n  mapping (uint256 => bool) public isChunk;\r\n  mapping (uint256 => uint256[]) public wattages;\r\n  uint256[] private _inChunkIds;\r\n\r\n  mapping (uint256 => OutStream) public outStreams;\r\n  uint256[] private _profiles;\r\n\r\n  /// @notice \r\n  /// @dev \r\n  constructor(uint256 _id, address payable client, uint256[] memory profiles) Escrow(client) public {\r\n    id = _id;\r\n    manager = msg.sender;\r\n\r\n    _profiles = profiles;\r\n    for(uint i = 0; i < _profiles.length; i++) {\r\n      OutStream memory outStream;\r\n      outStream.required = true;\r\n      outStream.index = i;\r\n\r\n      outStreams[_profiles[i]] = outStream;\r\n    }\r\n  }\r\n\r\n  /// @notice Manager can add more input chunkIds as they become available\r\n  /// @dev Reverts if a chunk with the same id already exists\r\n  function addInputChunkId(uint256 chunkId, uint256[] memory wattage) public onlyManager {\r\n    require(!isChunk[chunkId] && !ended);\r\n\r\n    isChunk[chunkId] = true;\r\n    wattages[chunkId] = wattage;\r\n    _inChunkIds.push(chunkId);\r\n  }\r\n\r\n  /// @notice Signals that the input stream has ended and no more input chunks are available\r\n  /// @dev Called by manager contract\r\n  function endStream() public onlyManager {\r\n    require(!ended);\r\n\r\n    ended = true;\r\n  }\r\n\r\n  /// @notice Miners use the method to submit proofs & output chunkIds\r\n  /// @dev Will not allow new proof submission if already validated, i.e. proofQueue.validator != address(0)\r\n  function submitProof(uint256 profile, uint256 chunkId, uint256 proof, uint256 outChunkId) public {\r\n    ChunkProofQueue storage proofQueue = outStreams[profile].proofQueues[chunkId];\r\n    require(isChunk[chunkId] && proofQueue.validator == address(0));\r\n    require(outStreams[profile].required);\r\n\r\n    proofQueue.proofs.push(Proof(msg.sender, outChunkId, proof));\r\n\r\n    emit ChunkProofSubmited(chunkId, profile, proofQueue.proofs.length - 1);\r\n  }\r\n\r\n  /// @notice Validators use the method to validate the first proof available in the queue.\r\n  /// @dev Requires that we have proofs.\r\n  /// alpha: we added a call to withdraw to actually transfer funds to miner when validating\r\n  /// (push payment).\r\n  function validateProof(uint256 profile, uint256 chunkId) public onlyValidator {\r\n    OutStream storage outStream = outStreams[profile];\r\n    require(outStream.required);\r\n\r\n    ChunkProofQueue storage proofQueue = outStream.proofQueues[chunkId];\r\n    require(isChunk[chunkId] && proofQueue.validator == address(0));\r\n    require(proofQueue.head < proofQueue.proofs.length);\r\n\r\n    address payable miner = proofQueue.proofs[proofQueue.head].miner;\r\n\r\n    uint256 amount = wattages[chunkId][outStream.index];\r\n    bool funded = fundAccount(miner, amount);\r\n    if(!funded) return;\r\n\r\n    proofQueue.validator = msg.sender;\r\n    outStream.validatedChunks++;\r\n\r\n    emit ChunkProofValidated(profile, chunkId);\r\n  }\r\n\r\n  /// @notice Validators can scrap the first proof available in the queue if they consider so.\r\n  /// @dev This will increment the proofs queue head to point to the next proof.\r\n  /// This we would decrease miner reputation.\r\n  function scrapProof(uint256 profile, uint256 chunkId) public onlyValidator {\r\n    ChunkProofQueue storage proofQueue = outStreams[profile].proofQueues[chunkId];\r\n    require(isChunk[chunkId] && proofQueue.validator == address(0));\r\n    require(proofQueue.head.add(1) <= proofQueue.proofs.length);\r\n\r\n    uint256 idx = proofQueue.head;\r\n    proofQueue.head = proofQueue.head.add(1); \r\n\r\n    emit ChunkProofScrapped(profile, chunkId, idx);\r\n  }\r\n\r\n  /// @notice Returns true if the chunk has been validated\r\n  /// @dev Reverts if profile ore chunk id are wrong/not required.\r\n  function hasValidProof(uint256 profile, uint256 chunkId) public view returns (bool) {\r\n    OutStream storage outStream = outStreams[profile];\r\n    require(isChunk[chunkId] && outStream.required);\r\n\r\n    return outStreams[profile].proofQueues[chunkId].validator != address(0);\r\n  }\r\n\r\n  /// @notice Returns the proof of a validated chunk.\r\n  /// @dev Requires that the proof has been validated.\r\n  function getValidProof(uint256 profile, uint256 chunkId) public view \r\n                                        returns (address miner,\r\n                                                address validator,\r\n                                                uint256 outputChunkId,\r\n                                                uint256 proof) {\r\n    require(hasValidProof(profile, chunkId));\r\n    \r\n    ChunkProofQueue storage proofQueue = outStreams[profile].proofQueues[chunkId];\r\n\r\n    uint256 idx = proofQueue.head;\r\n    return (proofQueue.proofs[idx].miner, proofQueue.validator, proofQueue.proofs[idx].outputChunkId, proofQueue.proofs[idx].proof);\r\n  }\r\n\r\n  /// @notice Returns the first proof canditate for validation/scraping.\r\n  /// @dev Validators should use this to query the current proof canditate before validating it.\r\n  /// Returns object with '0' values  if no candidate proof, i.e.\r\n  /// all submited proof have been scrapped\r\n  /// Reverts if if no proof yet submited or idx out of bounds\r\n  function getCandidateProof(uint256 profile, uint256 chunkId) public view \r\n                                        returns (address miner,\r\n                                                uint256 outputChunkId,\r\n                                                uint256 proof) {\r\n    ChunkProofQueue storage proofQueue = outStreams[profile].proofQueues[chunkId];\r\n    uint256 count = proofQueue.proofs.length;\r\n    require(count > 0);\r\n\r\n    uint256 idx = proofQueue.head;\r\n\r\n    if(idx < count ) {\r\n      return getProof(profile, chunkId, idx);\r\n    }\r\n\r\n    return (address(0), 0, 0);\r\n  }\r\n\r\n  /// @notice Query proof count for given chunk&profile.\r\n  /// @dev Reverts if profile or chunk id do not exist.\r\n  function getProofCount(uint256 profile, uint256 chunkId) public view returns (uint256) {\r\n    ChunkProofQueue storage proofQueue = outStreams[profile].proofQueues[chunkId];\r\n    require(outStreams[profile].required && isChunk[chunkId]);\r\n\r\n    return proofQueue.proofs.length;\r\n  }\r\n\r\n  /// @notice Returns any proof that has been submited for the given chunk & profile from the\r\n  /// proof queue. \r\n  /// @dev Can be used to inspect the proof queue for a given chunk & profile.\r\n  /// Reverts if profile or chunk id do not exist or if idx goes out of range.\r\n  function getProof(uint256 profile, uint256 chunkId, uint256 idx) public view \r\n                                        returns (address miner,\r\n                                                uint256 outputChunkId,\r\n                                                uint256 proof) {\r\n    ChunkProofQueue storage proofQueue = outStreams[profile].proofQueues[chunkId];\r\n\r\n    require(outStreams[profile].required && isChunk[chunkId]);\r\n    require(idx < proofQueue.proofs.length);\r\n\r\n    return (proofQueue.proofs[idx].miner, proofQueue.proofs[idx].outputChunkId, proofQueue.proofs[idx].proof );\r\n  }\r\n\r\n  /// @notice Returns true if the stream has valid proofs for every chunk for every profile\r\n  function isTranscodingDone() public view returns (bool) {\r\n    for(uint i = 0; i < _profiles.length; i++) {\r\n      if(!isBitrateTranscoded(_profiles[i]))\r\n        return false;\r\n    }\r\n    return true;\r\n  }\r\n  \r\n  /// @notice Returns true if the profile has valid proofs for every chunk.\r\n  /// @dev Reverts if profile is wrong/not required.\r\n  function isBitrateTranscoded(uint256 profile) public view returns (bool) {\r\n    OutStream storage outStream = outStreams[profile];\r\n    require(outStream.required);\r\n\r\n    return outStream.validatedChunks == _inChunkIds.length;\r\n  }\r\n\r\n  /// @notice Returns the profiles array.\r\n  function getprofiles() public view returns (uint256[] memory) {\r\n    return _profiles;\r\n  }\r\n\r\n  /// @notice Returns the number of profiles required for transcoding.\r\n  function getProfileCount() public view returns (uint256) {\r\n    return _profiles.length;\r\n  }\r\n\r\n  /// @notice Returns the input chunk ids array.\r\n  function getInChunks() public view returns (uint256[] memory) {\r\n    return _inChunkIds;\r\n  }\r\n\r\n  /// @notice Returns the number of chunks the input stream has.\r\n  function getInChunkCount() public view returns (uint256) {\r\n    return _inChunkIds.length;\r\n  }\r\n\r\n  /// @notice Returns all output chunk ids for the given profile only.\r\n  function getOutChunks(uint256 profile) public view returns (uint256[] memory) {\r\n    require(isBitrateTranscoded(profile));\r\n    OutStream storage outStream = outStreams[profile];\r\n\r\n    uint256[] memory outputChunks = new uint256[](_inChunkIds.length);\r\n\r\n    for(uint i = 0; i < _inChunkIds.length; i++) {\r\n      uint256 chunkId = _inChunkIds[i];\r\n      ChunkProofQueue storage proofQueue = outStream.proofQueues[chunkId];\r\n      uint256 head = proofQueue.head;\r\n      uint256 outChunkid = proofQueue.proofs[head].outputChunkId;\r\n\r\n      outputChunks[i] = outChunkid;\r\n    }\r\n\r\n    return outputChunks;\r\n  }\r\n\r\n  /// @notice Returns all output chunk ids for the given profile only.\r\n  function getVersion() public view returns (string memory) {\r\n    return ManagerInterface(manager).getVersion();\r\n  }\r\n\r\n  /// @notice Returns true if the manager allows the refund (special case) or if the stream\r\n  /// has ended and all the chunks have been transcoder\r\n  /// @dev Inherited from Escrow.\r\n  function refundAllowed() public view returns (bool) {\r\n    bool managerPermission = ManagerInterface(manager).refundAllowed(id);\r\n    bool streamDone = isTranscodingDone() && ended;\r\n\r\n    return managerPermission || streamDone;\r\n  }\r\n\r\n  /// @notice Modifier for methods only callable by validators\r\n  /// @dev The stream manager holds & manages the validator list.\r\n  modifier onlyValidator() {\r\n    require(ManagerInterface(manager).isValidator(msg.sender));\r\n    _;\r\n  }\r\n\r\n  /// @notice Modifier for methods only callable by the manager contract\r\n  modifier onlyManager() {\r\n    require(msg.sender == manager);\r\n    _;\r\n  }\r\n\r\n  /// @dev Events\r\n  event ChunkProofSubmited(uint256 indexed chunkId, uint256 indexed profile, uint256 indexed idx);\r\n  event ChunkProofValidated(uint256 indexed profile, uint256 indexed chunkId);\r\n  event ChunkProofScrapped(uint256 indexed profile, uint256 indexed chunkId, uint256 indexed idx);\r\n}\r\n",
  "sourcePath": "D:\\work\\blockchain\\alpha-streaming-contract\\contracts\\Stream.sol",
  "compiler": {
    "name": "solc",
    "version": "0.5.8+commit.23d335f2.Emscripten.clang"
  },
  "schemaVersion": "3.0.10",
  "updatedAt": "2019-07-09T14:57:04.311Z",
  "devdoc": {
    "methods": {
      "addInputChunkId(uint256,uint256[])": {
        "details": "Reverts if a chunk with the same id already exists"
      },
      "deposit()": {
        "details": "Anyone that calls the method funds the client account."
      },
      "endStream()": {
        "details": "Called by manager contract"
      },
      "getProofCount(uint256,uint256)": {
        "details": "Reverts if profile or chunk id do not exist."
      },
      "getValidProof(uint256,uint256)": {
        "details": "Requires that the proof has been validated."
      },
      "hasValidProof(uint256,uint256)": {
        "details": "Reverts if profile ore chunk id are wrong/not required."
      },
      "isBitrateTranscoded(uint256)": {
        "details": "Reverts if profile is wrong/not required."
      },
      "refundAllowed()": {
        "details": "Inherited from Escrow."
      },
      "submitProof(uint256,uint256,uint256,uint256)": {
        "details": "Will not allow new proof submission if already validated, i.e. proofQueue.validator != address(0)"
      }
    }
  },
  "userdoc": {
    "methods": {
      "getCandidateProof(uint256,uint256)": {
        "notice": "Reverts if if no proof yet submited or idx out of bounds"
      },
      "getInChunkCount()": {
        "notice": "Returns the number of chunks the input stream has."
      },
      "getInChunks()": {
        "notice": "Returns the input chunk ids array."
      },
      "getOutChunks(uint256)": {
        "notice": "Returns all output chunk ids for the given profile only."
      },
      "getProfileCount()": {
        "notice": "Returns the number of profiles required for transcoding."
      },
      "getProof(uint256,uint256,uint256)": {
        "notice": "Reverts if profile or chunk id do not exist or if idx goes out of range."
      },
      "getVersion()": {
        "notice": "Returns all output chunk ids for the given profile only."
      },
      "getprofiles()": {
        "notice": "Returns the profiles array."
      },
      "isTranscodingDone()": {
        "notice": "Returns true if the stream has valid proofs for every chunk for every profile"
      },
      "scrapProof(uint256,uint256)": {
        "notice": "This we would decrease miner reputation."
      },
      "validateProof(uint256,uint256)": {
        "notice": "(push payment)."
      }
    },
    "notice": "submited by miners."
  }
}